{"contracts/tests/ProofOfIntegrity.test.sol":{"ProofOfIntegrityTest":{"abi":[{"inputs":[],"name":"setUp","outputs":[],"stateMutability":"nonpayable","type":"function"},{"inputs":[],"name":"testBatchUpdateData","outputs":[],"stateMutability":"nonpayable","type":"function"},{"inputs":[],"name":"testUpdateData","outputs":[],"stateMutability":"nonpayable","type":"function"},{"inputs":[],"name":"testVerifyData","outputs":[],"stateMutability":"nonpayable","type":"function"},{"inputs":[],"name":"vm","outputs":[{"internalType":"contract Vm","name":"","type":"address"}],"stateMutability":"view","type":"function"}],"evm":{"bytecode":{"linkReferences":{},"object":"608060405234801561001057600080fd5b50610dce806100206000396000f3fe608060405234801561001057600080fd5b50600436106100575760003560e01c80630a9254e41461005c5780632677df711461006657806330c8e6d11461006e57806339bdeca9146100765780633a7684631461007e575b600080fd5b6100646100b5565b005b610064610187565b61006461029b565b6100646103aa565b610099737109709ecfa91a80626ff3989d68f67f5b1dd12d81565b6040516001600160a01b03909116815260200160405180910390f35b6040516100c1906107af565b604051809103906000f0801580156100dd573d6000803e3d6000fd5b50600080546001600160a01b0319166001600160a01b03929092169190911790556040805180820182526009815268746573742d6e6f646560b81b6020918201527ff6f5d3b6218e07288451f415e2a5a00eaf568bc534e9ea1e2c8a44190f5855396001558151808301909252600c82526b1d195cdd0b58dbdb9d195b9d60a21b9101527f8aa04bc8840739a61d1d93a6c1135d94b473428859ad9c57aa47d02f8b9f3241600255565b600054600154600254604051637ada1b5560e01b8152600481019290925260248201526001600160a01b0390911690637ada1b5590604401600060405180830381600087803b1580156101d957600080fd5b505af11580156101ed573d6000803e3d6000fd5b505060008054600154604051634b04c09d60e01b815292945084935083926001600160a01b0390921691634b04c09d9161022d9160040190815260200190565b606060405180830381865afa15801561024a573d6000803e3d6000fd5b505050506040513d601f19601f8201168201806040525081019061026e91906107d8565b925092509250610280836002546106c9565b61028a8130610715565b6102966000831161076c565b505050565b600054600154600254604051637ada1b5560e01b8152600481019290925260248201526001600160a01b0390911690637ada1b5590604401600060405180830381600087803b1580156102ed57600080fd5b505af1158015610301573d6000803e3d6000fd5b505060008054600154600254604051632ba1c00560e21b81526004810192909252602482015291935083925082916001600160a01b039091169063ae87001490604401606060405180830381865afa158015610361573d6000803e3d6000fd5b505050506040513d601f19601f82011682018060405250810190610385919061080d565b9250925092506103948361076c565b6103a06000831161076c565b6102968130610715565b6040805160028082526060820183526000926020830190803683370190505090507f7fc20c8d9d9e947c46260ce3f2c668e1d180b3ea7271221762252552d10f68d4816000815181106103ff576103ff610848565b6020026020010181815250507f12412054d2902a72739578e4db2d30127d42d3fbd266b6401d401de759273ff38160018151811061043f5761043f610848565b6020908102919091010152604080516002808252606082019092526000918160200160208202803683370190505090507f397377778b65288382218837c69247cd1ec792d2e67be47ed45514d529e1c239816000815181106104a3576104a3610848565b6020026020010181815250507f2e112640cec37046c7d1362ca75798a78b0d31a73d08359539ae1ec9b0053824816001815181106104e3576104e3610848565b602090810291909101015260005460405163e25fbc6560e01b81526001600160a01b039091169063e25fbc65906105209085908590600401610899565b600060405180830381600087803b15801561053a57600080fd5b505af115801561054e573d6000803e3d6000fd5b50506000805485519193506001600160a01b03169150634b04c09d908590849061057a5761057a610848565b60200260200101516040518263ffffffff1660e01b81526004016105a091815260200190565b606060405180830381865afa1580156105bd573d6000803e3d6000fd5b505050506040513d601f19601f820116820180604052508101906105e191906107d8565b5050905060008060009054906101000a90046001600160a01b03166001600160a01b0316634b04c09d8560018151811061061d5761061d610848565b60200260200101516040518263ffffffff1660e01b815260040161064391815260200190565b606060405180830381865afa158015610660573d6000803e3d6000fd5b505050506040513d601f19601f8201168201806040525081019061068491906107d8565b505090506106ac828460008151811061069f5761069f610848565b60200260200101516106c9565b6106c3818460018151811061069f5761069f610848565b50505050565b8082146107115760405162461bcd60e51b8152602060048201526011602482015270109e5d195ccccc881b9bdd08195c5d585b607a1b60448201526064015b60405180910390fd5b5050565b806001600160a01b0316826001600160a01b0316146107115760405162461bcd60e51b81526020600482015260136024820152721059191c995cdcd95cc81b9bdd08195c5d585b606a1b6044820152606401610708565b806107ac5760405162461bcd60e51b815260206004820152601060248201526f105cdcd95c9d1a5bdb8819985a5b195960821b6044820152606401610708565b50565b6104d1806108c883390190565b80516001600160a01b03811681146107d357600080fd5b919050565b6000806000606084860312156107ed57600080fd5b8351925060208401519150610804604085016107bc565b90509250925092565b60008060006060848603121561082257600080fd5b8351801515811461083257600080fd5b60208501519093509150610804604085016107bc565b634e487b7160e01b600052603260045260246000fd5b600081518084526020808501945080840160005b8381101561088e57815187529582019590820190600101610872565b509495945050505050565b6040815260006108ac604083018561085e565b82810360208401526108be818561085e565b9594505050505056fe608060405234801561001057600080fd5b506104b1806100206000396000f3fe608060405234801561001057600080fd5b50600436106100575760003560e01c80634b04c09d1461005c5780637ada1b55146100d5578063ae870014146100ea578063e25fbc6514610164578063f63553b514610177575b600080fd5b6100ac61006a3660046102ee565b600081815260208181526040918290208251606081018452815480825260018301549382018490526002909201546001600160a01b0316930183905293909250565b6040805193845260208401929092526001600160a01b0316908201526060015b60405180910390f35b6100e86100e3366004610307565b6101af565b005b61013e6100f8366004610307565b600082815260208181526040918290208251606081018452815480825260018301549382018490526002909201546001600160a01b031693018390528314919250925092565b60408051931515845260208401929092526001600160a01b0316908201526060016100cc565b6100e86101723660046103da565b610241565b6100ac6101853660046102ee565b6000602081905290815260409020805460018201546002909201549091906001600160a01b031683565b6040805160608101825282815242602080830191825233838501818152600088815280845286902094518555925160018501559151600290930180546001600160a01b0319166001600160a01b039094169390931790925582518481529182015283917f8bfef2f2aebfe6bceb69ecae86388e8cfb858904d59c7b81295c680b664ab7e3910160405180910390a25050565b805182511461028f5760405162461bcd60e51b8152602060048201526016602482015275082e4e4c2f2e640d8cadccee8d040dad2e6dac2e8c6d60531b604482015260640160405180910390fd5b60005b82518110156102e9576102d78382815181106102b0576102b061043e565b60200260200101518383815181106102ca576102ca61043e565b60200260200101516101af565b806102e181610454565b915050610292565b505050565b60006020828403121561030057600080fd5b5035919050565b6000806040838503121561031a57600080fd5b50508035926020909101359150565b634e487b7160e01b600052604160045260246000fd5b600082601f83011261035057600080fd5b8135602067ffffffffffffffff8083111561036d5761036d610329565b8260051b604051601f19603f8301168101818110848211171561039257610392610329565b6040529384528581018301938381019250878511156103b057600080fd5b83870191505b848210156103cf578135835291830191908301906103b6565b979650505050505050565b600080604083850312156103ed57600080fd5b823567ffffffffffffffff8082111561040557600080fd5b6104118683870161033f565b9350602085013591508082111561042757600080fd5b506104348582860161033f565b9150509250929050565b634e487b7160e01b600052603260045260246000fd5b60006001820161047457634e487b7160e01b600052601160045260246000fd5b506001019056fea2646970667358221220d8ab4a1b53ccd5019e425c59c4b9c7922e00adc58992c763f844ae7a20c94b4264736f6c63430008130033a264697066735822122005f801ae1d1e46b660738b97e4c305a0094e0f96a8655e4194efdd0fafb58c9f64736f6c63430008130033","opcodes":"PUSH1 0x80 PUSH1 0x40 MSTORE CALLVALUE DUP1 ISZERO PUSH2 0x10 JUMPI PUSH1 0x0 DUP1 REVERT JUMPDEST POP PUSH2 0xDCE DUP1 PUSH2 0x20 PUSH1 0x0 CODECOPY PUSH1 0x0 RETURN INVALID PUSH1 0x80 PUSH1 0x40 MSTORE CALLVALUE DUP1 ISZERO PUSH2 0x10 JUMPI PUSH1 0x0 DUP1 REVERT JUMPDEST POP PUSH1 0x4 CALLDATASIZE LT PUSH2 0x57 JUMPI PUSH1 0x0 CALLDATALOAD PUSH1 0xE0 SHR DUP1 PUSH4 0xA9254E4 EQ PUSH2 0x5C JUMPI DUP1 PUSH4 0x2677DF71 EQ PUSH2 0x66 JUMPI DUP1 PUSH4 0x30C8E6D1 EQ PUSH2 0x6E JUMPI DUP1 PUSH4 0x39BDECA9 EQ PUSH2 0x76 JUMPI DUP1 PUSH4 0x3A768463 EQ PUSH2 0x7E JUMPI JUMPDEST PUSH1 0x0 DUP1 REVERT JUMPDEST PUSH2 0x64 PUSH2 0xB5 JUMP JUMPDEST STOP JUMPDEST PUSH2 0x64 PUSH2 0x187 JUMP JUMPDEST PUSH2 0x64 PUSH2 0x29B JUMP JUMPDEST PUSH2 0x64 PUSH2 0x3AA JUMP JUMPDEST PUSH2 0x99 PUSH20 0x7109709ECFA91A80626FF3989D68F67F5B1DD12D DUP2 JUMP JUMPDEST PUSH1 0x40 MLOAD PUSH1 0x1 PUSH1 0x1 PUSH1 0xA0 SHL SUB SWAP1 SWAP2 AND DUP2 MSTORE PUSH1 0x20 ADD PUSH1 0x40 MLOAD DUP1 SWAP2 SUB SWAP1 RETURN JUMPDEST PUSH1 0x40 MLOAD PUSH2 0xC1 SWAP1 PUSH2 0x7AF JUMP JUMPDEST PUSH1 0x40 MLOAD DUP1 SWAP2 SUB SWAP1 PUSH1 0x0 CREATE DUP1 ISZERO DUP1 ISZERO PUSH2 0xDD JUMPI RETURNDATASIZE PUSH1 0x0 DUP1 RETURNDATACOPY RETURNDATASIZE PUSH1 0x0 REVERT JUMPDEST POP PUSH1 0x0 DUP1 SLOAD PUSH1 0x1 PUSH1 0x1 PUSH1 0xA0 SHL SUB NOT AND PUSH1 0x1 PUSH1 0x1 PUSH1 0xA0 SHL SUB SWAP3 SWAP1 SWAP3 AND SWAP2 SWAP1 SWAP2 OR SWAP1 SSTORE PUSH1 0x40 DUP1 MLOAD DUP1 DUP3 ADD DUP3 MSTORE PUSH1 0x9 DUP2 MSTORE PUSH9 0x746573742D6E6F6465 PUSH1 0xB8 SHL PUSH1 0x20 SWAP2 DUP3 ADD MSTORE PUSH32 0xF6F5D3B6218E07288451F415E2A5A00EAF568BC534E9EA1E2C8A44190F585539 PUSH1 0x1 SSTORE DUP2 MLOAD DUP1 DUP4 ADD SWAP1 SWAP3 MSTORE PUSH1 0xC DUP3 MSTORE PUSH12 0x1D195CDD0B58DBDB9D195B9D PUSH1 0xA2 SHL SWAP2 ADD MSTORE PUSH32 0x8AA04BC8840739A61D1D93A6C1135D94B473428859AD9C57AA47D02F8B9F3241 PUSH1 0x2 SSTORE JUMP JUMPDEST PUSH1 0x0 SLOAD PUSH1 0x1 SLOAD PUSH1 0x2 SLOAD PUSH1 0x40 MLOAD PUSH4 0x7ADA1B55 PUSH1 0xE0 SHL DUP2 MSTORE PUSH1 0x4 DUP2 ADD SWAP3 SWAP1 SWAP3 MSTORE PUSH1 0x24 DUP3 ADD MSTORE PUSH1 0x1 PUSH1 0x1 PUSH1 0xA0 SHL SUB SWAP1 SWAP2 AND SWAP1 PUSH4 0x7ADA1B55 SWAP1 PUSH1 0x44 ADD PUSH1 0x0 PUSH1 0x40 MLOAD DUP1 DUP4 SUB DUP2 PUSH1 0x0 DUP8 DUP1 EXTCODESIZE ISZERO DUP1 ISZERO PUSH2 0x1D9 JUMPI PUSH1 0x0 DUP1 REVERT JUMPDEST POP GAS CALL ISZERO DUP1 ISZERO PUSH2 0x1ED JUMPI RETURNDATASIZE PUSH1 0x0 DUP1 RETURNDATACOPY RETURNDATASIZE PUSH1 0x0 REVERT JUMPDEST POP POP PUSH1 0x0 DUP1 SLOAD PUSH1 0x1 SLOAD PUSH1 0x40 MLOAD PUSH4 0x4B04C09D PUSH1 0xE0 SHL DUP2 MSTORE SWAP3 SWAP5 POP DUP5 SWAP4 POP DUP4 SWAP3 PUSH1 0x1 PUSH1 0x1 PUSH1 0xA0 SHL SUB SWAP1 SWAP3 AND SWAP2 PUSH4 0x4B04C09D SWAP2 PUSH2 0x22D SWAP2 PUSH1 0x4 ADD SWAP1 DUP2 MSTORE PUSH1 0x20 ADD SWAP1 JUMP JUMPDEST PUSH1 0x60 PUSH1 0x40 MLOAD DUP1 DUP4 SUB DUP2 DUP7 GAS STATICCALL ISZERO DUP1 ISZERO PUSH2 0x24A JUMPI RETURNDATASIZE PUSH1 0x0 DUP1 RETURNDATACOPY RETURNDATASIZE PUSH1 0x0 REVERT JUMPDEST POP POP POP POP PUSH1 0x40 MLOAD RETURNDATASIZE PUSH1 0x1F NOT PUSH1 0x1F DUP3 ADD AND DUP3 ADD DUP1 PUSH1 0x40 MSTORE POP DUP2 ADD SWAP1 PUSH2 0x26E SWAP2 SWAP1 PUSH2 0x7D8 JUMP JUMPDEST SWAP3 POP SWAP3 POP SWAP3 POP PUSH2 0x280 DUP4 PUSH1 0x2 SLOAD PUSH2 0x6C9 JUMP JUMPDEST PUSH2 0x28A DUP2 ADDRESS PUSH2 0x715 JUMP JUMPDEST PUSH2 0x296 PUSH1 0x0 DUP4 GT PUSH2 0x76C JUMP JUMPDEST POP POP POP JUMP JUMPDEST PUSH1 0x0 SLOAD PUSH1 0x1 SLOAD PUSH1 0x2 SLOAD PUSH1 0x40 MLOAD PUSH4 0x7ADA1B55 PUSH1 0xE0 SHL DUP2 MSTORE PUSH1 0x4 DUP2 ADD SWAP3 SWAP1 SWAP3 MSTORE PUSH1 0x24 DUP3 ADD MSTORE PUSH1 0x1 PUSH1 0x1 PUSH1 0xA0 SHL SUB SWAP1 SWAP2 AND SWAP1 PUSH4 0x7ADA1B55 SWAP1 PUSH1 0x44 ADD PUSH1 0x0 PUSH1 0x40 MLOAD DUP1 DUP4 SUB DUP2 PUSH1 0x0 DUP8 DUP1 EXTCODESIZE ISZERO DUP1 ISZERO PUSH2 0x2ED JUMPI PUSH1 0x0 DUP1 REVERT JUMPDEST POP GAS CALL ISZERO DUP1 ISZERO PUSH2 0x301 JUMPI RETURNDATASIZE PUSH1 0x0 DUP1 RETURNDATACOPY RETURNDATASIZE PUSH1 0x0 REVERT JUMPDEST POP POP PUSH1 0x0 DUP1 SLOAD PUSH1 0x1 SLOAD PUSH1 0x2 SLOAD PUSH1 0x40 MLOAD PUSH4 0x2BA1C005 PUSH1 0xE2 SHL DUP2 MSTORE PUSH1 0x4 DUP2 ADD SWAP3 SWAP1 SWAP3 MSTORE PUSH1 0x24 DUP3 ADD MSTORE SWAP2 SWAP4 POP DUP4 SWAP3 POP DUP3 SWAP2 PUSH1 0x1 PUSH1 0x1 PUSH1 0xA0 SHL SUB SWAP1 SWAP2 AND SWAP1 PUSH4 0xAE870014 SWAP1 PUSH1 0x44 ADD PUSH1 0x60 PUSH1 0x40 MLOAD DUP1 DUP4 SUB DUP2 DUP7 GAS STATICCALL ISZERO DUP1 ISZERO PUSH2 0x361 JUMPI RETURNDATASIZE PUSH1 0x0 DUP1 RETURNDATACOPY RETURNDATASIZE PUSH1 0x0 REVERT JUMPDEST POP POP POP POP PUSH1 0x40 MLOAD RETURNDATASIZE PUSH1 0x1F NOT PUSH1 0x1F DUP3 ADD AND DUP3 ADD DUP1 PUSH1 0x40 MSTORE POP DUP2 ADD SWAP1 PUSH2 0x385 SWAP2 SWAP1 PUSH2 0x80D JUMP JUMPDEST SWAP3 POP SWAP3 POP SWAP3 POP PUSH2 0x394 DUP4 PUSH2 0x76C JUMP JUMPDEST PUSH2 0x3A0 PUSH1 0x0 DUP4 GT PUSH2 0x76C JUMP JUMPDEST PUSH2 0x296 DUP2 ADDRESS PUSH2 0x715 JUMP JUMPDEST PUSH1 0x40 DUP1 MLOAD PUSH1 0x2 DUP1 DUP3 MSTORE PUSH1 0x60 DUP3 ADD DUP4 MSTORE PUSH1 0x0 SWAP3 PUSH1 0x20 DUP4 ADD SWAP1 DUP1 CALLDATASIZE DUP4 CALLDATACOPY ADD SWAP1 POP POP SWAP1 POP PUSH32 0x7FC20C8D9D9E947C46260CE3F2C668E1D180B3EA7271221762252552D10F68D4 DUP2 PUSH1 0x0 DUP2 MLOAD DUP2 LT PUSH2 0x3FF JUMPI PUSH2 0x3FF PUSH2 0x848 JUMP JUMPDEST PUSH1 0x20 MUL PUSH1 0x20 ADD ADD DUP2 DUP2 MSTORE POP POP PUSH32 0x12412054D2902A72739578E4DB2D30127D42D3FBD266B6401D401DE759273FF3 DUP2 PUSH1 0x1 DUP2 MLOAD DUP2 LT PUSH2 0x43F JUMPI PUSH2 0x43F PUSH2 0x848 JUMP JUMPDEST PUSH1 0x20 SWAP1 DUP2 MUL SWAP2 SWAP1 SWAP2 ADD ADD MSTORE PUSH1 0x40 DUP1 MLOAD PUSH1 0x2 DUP1 DUP3 MSTORE PUSH1 0x60 DUP3 ADD SWAP1 SWAP3 MSTORE PUSH1 0x0 SWAP2 DUP2 PUSH1 0x20 ADD PUSH1 0x20 DUP3 MUL DUP1 CALLDATASIZE DUP4 CALLDATACOPY ADD SWAP1 POP POP SWAP1 POP PUSH32 0x397377778B65288382218837C69247CD1EC792D2E67BE47ED45514D529E1C239 DUP2 PUSH1 0x0 DUP2 MLOAD DUP2 LT PUSH2 0x4A3 JUMPI PUSH2 0x4A3 PUSH2 0x848 JUMP JUMPDEST PUSH1 0x20 MUL PUSH1 0x20 ADD ADD DUP2 DUP2 MSTORE POP POP PUSH32 0x2E112640CEC37046C7D1362CA75798A78B0D31A73D08359539AE1EC9B0053824 DUP2 PUSH1 0x1 DUP2 MLOAD DUP2 LT PUSH2 0x4E3 JUMPI PUSH2 0x4E3 PUSH2 0x848 JUMP JUMPDEST PUSH1 0x20 SWAP1 DUP2 MUL SWAP2 SWAP1 SWAP2 ADD ADD MSTORE PUSH1 0x0 SLOAD PUSH1 0x40 MLOAD PUSH4 0xE25FBC65 PUSH1 0xE0 SHL DUP2 MSTORE PUSH1 0x1 PUSH1 0x1 PUSH1 0xA0 SHL SUB SWAP1 SWAP2 AND SWAP1 PUSH4 0xE25FBC65 SWAP1 PUSH2 0x520 SWAP1 DUP6 SWAP1 DUP6 SWAP1 PUSH1 0x4 ADD PUSH2 0x899 JUMP JUMPDEST PUSH1 0x0 PUSH1 0x40 MLOAD DUP1 DUP4 SUB DUP2 PUSH1 0x0 DUP8 DUP1 EXTCODESIZE ISZERO DUP1 ISZERO PUSH2 0x53A JUMPI PUSH1 0x0 DUP1 REVERT JUMPDEST POP GAS CALL ISZERO DUP1 ISZERO PUSH2 0x54E JUMPI RETURNDATASIZE PUSH1 0x0 DUP1 RETURNDATACOPY RETURNDATASIZE PUSH1 0x0 REVERT JUMPDEST POP POP PUSH1 0x0 DUP1 SLOAD DUP6 MLOAD SWAP2 SWAP4 POP PUSH1 0x1 PUSH1 0x1 PUSH1 0xA0 SHL SUB AND SWAP2 POP PUSH4 0x4B04C09D SWAP1 DUP6 SWAP1 DUP5 SWAP1 PUSH2 0x57A JUMPI PUSH2 0x57A PUSH2 0x848 JUMP JUMPDEST PUSH1 0x20 MUL PUSH1 0x20 ADD ADD MLOAD PUSH1 0x40 MLOAD DUP3 PUSH4 0xFFFFFFFF AND PUSH1 0xE0 SHL DUP2 MSTORE PUSH1 0x4 ADD PUSH2 0x5A0 SWAP2 DUP2 MSTORE PUSH1 0x20 ADD SWAP1 JUMP JUMPDEST PUSH1 0x60 PUSH1 0x40 MLOAD DUP1 DUP4 SUB DUP2 DUP7 GAS STATICCALL ISZERO DUP1 ISZERO PUSH2 0x5BD JUMPI RETURNDATASIZE PUSH1 0x0 DUP1 RETURNDATACOPY RETURNDATASIZE PUSH1 0x0 REVERT JUMPDEST POP POP POP POP PUSH1 0x40 MLOAD RETURNDATASIZE PUSH1 0x1F NOT PUSH1 0x1F DUP3 ADD AND DUP3 ADD DUP1 PUSH1 0x40 MSTORE POP DUP2 ADD SWAP1 PUSH2 0x5E1 SWAP2 SWAP1 PUSH2 0x7D8 JUMP JUMPDEST POP POP SWAP1 POP PUSH1 0x0 DUP1 PUSH1 0x0 SWAP1 SLOAD SWAP1 PUSH2 0x100 EXP SWAP1 DIV PUSH1 0x1 PUSH1 0x1 PUSH1 0xA0 SHL SUB AND PUSH1 0x1 PUSH1 0x1 PUSH1 0xA0 SHL SUB AND PUSH4 0x4B04C09D DUP6 PUSH1 0x1 DUP2 MLOAD DUP2 LT PUSH2 0x61D JUMPI PUSH2 0x61D PUSH2 0x848 JUMP JUMPDEST PUSH1 0x20 MUL PUSH1 0x20 ADD ADD MLOAD PUSH1 0x40 MLOAD DUP3 PUSH4 0xFFFFFFFF AND PUSH1 0xE0 SHL DUP2 MSTORE PUSH1 0x4 ADD PUSH2 0x643 SWAP2 DUP2 MSTORE PUSH1 0x20 ADD SWAP1 JUMP JUMPDEST PUSH1 0x60 PUSH1 0x40 MLOAD DUP1 DUP4 SUB DUP2 DUP7 GAS STATICCALL ISZERO DUP1 ISZERO PUSH2 0x660 JUMPI RETURNDATASIZE PUSH1 0x0 DUP1 RETURNDATACOPY RETURNDATASIZE PUSH1 0x0 REVERT JUMPDEST POP POP POP POP PUSH1 0x40 MLOAD RETURNDATASIZE PUSH1 0x1F NOT PUSH1 0x1F DUP3 ADD AND DUP3 ADD DUP1 PUSH1 0x40 MSTORE POP DUP2 ADD SWAP1 PUSH2 0x684 SWAP2 SWAP1 PUSH2 0x7D8 JUMP JUMPDEST POP POP SWAP1 POP PUSH2 0x6AC DUP3 DUP5 PUSH1 0x0 DUP2 MLOAD DUP2 LT PUSH2 0x69F JUMPI PUSH2 0x69F PUSH2 0x848 JUMP JUMPDEST PUSH1 0x20 MUL PUSH1 0x20 ADD ADD MLOAD PUSH2 0x6C9 JUMP JUMPDEST PUSH2 0x6C3 DUP2 DUP5 PUSH1 0x1 DUP2 MLOAD DUP2 LT PUSH2 0x69F JUMPI PUSH2 0x69F PUSH2 0x848 JUMP JUMPDEST POP POP POP POP JUMP JUMPDEST DUP1 DUP3 EQ PUSH2 0x711 JUMPI PUSH1 0x40 MLOAD PUSH3 0x461BCD PUSH1 0xE5 SHL DUP2 MSTORE PUSH1 0x20 PUSH1 0x4 DUP3 ADD MSTORE PUSH1 0x11 PUSH1 0x24 DUP3 ADD MSTORE PUSH17 0x109E5D195CCCCC881B9BDD08195C5D585B PUSH1 0x7A SHL PUSH1 0x44 DUP3 ADD MSTORE PUSH1 0x64 ADD JUMPDEST PUSH1 0x40 MLOAD DUP1 SWAP2 SUB SWAP1 REVERT JUMPDEST POP POP JUMP JUMPDEST DUP1 PUSH1 0x1 PUSH1 0x1 PUSH1 0xA0 SHL SUB AND DUP3 PUSH1 0x1 PUSH1 0x1 PUSH1 0xA0 SHL SUB AND EQ PUSH2 0x711 JUMPI PUSH1 0x40 MLOAD PUSH3 0x461BCD PUSH1 0xE5 SHL DUP2 MSTORE PUSH1 0x20 PUSH1 0x4 DUP3 ADD MSTORE PUSH1 0x13 PUSH1 0x24 DUP3 ADD MSTORE PUSH19 0x1059191C995CDCD95CC81B9BDD08195C5D585B PUSH1 0x6A SHL PUSH1 0x44 DUP3 ADD MSTORE PUSH1 0x64 ADD PUSH2 0x708 JUMP JUMPDEST DUP1 PUSH2 0x7AC JUMPI PUSH1 0x40 MLOAD PUSH3 0x461BCD PUSH1 0xE5 SHL DUP2 MSTORE PUSH1 0x20 PUSH1 0x4 DUP3 ADD MSTORE PUSH1 0x10 PUSH1 0x24 DUP3 ADD MSTORE PUSH16 0x105CDCD95C9D1A5BDB8819985A5B1959 PUSH1 0x82 SHL PUSH1 0x44 DUP3 ADD MSTORE PUSH1 0x64 ADD PUSH2 0x708 JUMP JUMPDEST POP JUMP JUMPDEST PUSH2 0x4D1 DUP1 PUSH2 0x8C8 DUP4 CODECOPY ADD SWAP1 JUMP JUMPDEST DUP1 MLOAD PUSH1 0x1 PUSH1 0x1 PUSH1 0xA0 SHL SUB DUP2 AND DUP2 EQ PUSH2 0x7D3 JUMPI PUSH1 0x0 DUP1 REVERT JUMPDEST SWAP2 SWAP1 POP JUMP JUMPDEST PUSH1 0x0 DUP1 PUSH1 0x0 PUSH1 0x60 DUP5 DUP7 SUB SLT ISZERO PUSH2 0x7ED JUMPI PUSH1 0x0 DUP1 REVERT JUMPDEST DUP4 MLOAD SWAP3 POP PUSH1 0x20 DUP5 ADD MLOAD SWAP2 POP PUSH2 0x804 PUSH1 0x40 DUP6 ADD PUSH2 0x7BC JUMP JUMPDEST SWAP1 POP SWAP3 POP SWAP3 POP SWAP3 JUMP JUMPDEST PUSH1 0x0 DUP1 PUSH1 0x0 PUSH1 0x60 DUP5 DUP7 SUB SLT ISZERO PUSH2 0x822 JUMPI PUSH1 0x0 DUP1 REVERT JUMPDEST DUP4 MLOAD DUP1 ISZERO ISZERO DUP2 EQ PUSH2 0x832 JUMPI PUSH1 0x0 DUP1 REVERT JUMPDEST PUSH1 0x20 DUP6 ADD MLOAD SWAP1 SWAP4 POP SWAP2 POP PUSH2 0x804 PUSH1 0x40 DUP6 ADD PUSH2 0x7BC JUMP JUMPDEST PUSH4 0x4E487B71 PUSH1 0xE0 SHL PUSH1 0x0 MSTORE PUSH1 0x32 PUSH1 0x4 MSTORE PUSH1 0x24 PUSH1 0x0 REVERT JUMPDEST PUSH1 0x0 DUP2 MLOAD DUP1 DUP5 MSTORE PUSH1 0x20 DUP1 DUP6 ADD SWAP5 POP DUP1 DUP5 ADD PUSH1 0x0 JUMPDEST DUP4 DUP2 LT ISZERO PUSH2 0x88E JUMPI DUP2 MLOAD DUP8 MSTORE SWAP6 DUP3 ADD SWAP6 SWAP1 DUP3 ADD SWAP1 PUSH1 0x1 ADD PUSH2 0x872 JUMP JUMPDEST POP SWAP5 SWAP6 SWAP5 POP POP POP POP POP JUMP JUMPDEST PUSH1 0x40 DUP2 MSTORE PUSH1 0x0 PUSH2 0x8AC PUSH1 0x40 DUP4 ADD DUP6 PUSH2 0x85E JUMP JUMPDEST DUP3 DUP2 SUB PUSH1 0x20 DUP5 ADD MSTORE PUSH2 0x8BE DUP2 DUP6 PUSH2 0x85E JUMP JUMPDEST SWAP6 SWAP5 POP POP POP POP POP JUMP INVALID PUSH1 0x80 PUSH1 0x40 MSTORE CALLVALUE DUP1 ISZERO PUSH2 0x10 JUMPI PUSH1 0x0 DUP1 REVERT JUMPDEST POP PUSH2 0x4B1 DUP1 PUSH2 0x20 PUSH1 0x0 CODECOPY PUSH1 0x0 RETURN INVALID PUSH1 0x80 PUSH1 0x40 MSTORE CALLVALUE DUP1 ISZERO PUSH2 0x10 JUMPI PUSH1 0x0 DUP1 REVERT JUMPDEST POP PUSH1 0x4 CALLDATASIZE LT PUSH2 0x57 JUMPI PUSH1 0x0 CALLDATALOAD PUSH1 0xE0 SHR DUP1 PUSH4 0x4B04C09D EQ PUSH2 0x5C JUMPI DUP1 PUSH4 0x7ADA1B55 EQ PUSH2 0xD5 JUMPI DUP1 PUSH4 0xAE870014 EQ PUSH2 0xEA JUMPI DUP1 PUSH4 0xE25FBC65 EQ PUSH2 0x164 JUMPI DUP1 PUSH4 0xF63553B5 EQ PUSH2 0x177 JUMPI JUMPDEST PUSH1 0x0 DUP1 REVERT JUMPDEST PUSH2 0xAC PUSH2 0x6A CALLDATASIZE PUSH1 0x4 PUSH2 0x2EE JUMP JUMPDEST PUSH1 0x0 DUP2 DUP2 MSTORE PUSH1 0x20 DUP2 DUP2 MSTORE PUSH1 0x40 SWAP2 DUP3 SWAP1 KECCAK256 DUP3 MLOAD PUSH1 0x60 DUP2 ADD DUP5 MSTORE DUP2 SLOAD DUP1 DUP3 MSTORE PUSH1 0x1 DUP4 ADD SLOAD SWAP4 DUP3 ADD DUP5 SWAP1 MSTORE PUSH1 0x2 SWAP1 SWAP3 ADD SLOAD PUSH1 0x1 PUSH1 0x1 PUSH1 0xA0 SHL SUB AND SWAP4 ADD DUP4 SWAP1 MSTORE SWAP4 SWAP1 SWAP3 POP JUMP JUMPDEST PUSH1 0x40 DUP1 MLOAD SWAP4 DUP5 MSTORE PUSH1 0x20 DUP5 ADD SWAP3 SWAP1 SWAP3 MSTORE PUSH1 0x1 PUSH1 0x1 PUSH1 0xA0 SHL SUB AND SWAP1 DUP3 ADD MSTORE PUSH1 0x60 ADD JUMPDEST PUSH1 0x40 MLOAD DUP1 SWAP2 SUB SWAP1 RETURN JUMPDEST PUSH2 0xE8 PUSH2 0xE3 CALLDATASIZE PUSH1 0x4 PUSH2 0x307 JUMP JUMPDEST PUSH2 0x1AF JUMP JUMPDEST STOP JUMPDEST PUSH2 0x13E PUSH2 0xF8 CALLDATASIZE PUSH1 0x4 PUSH2 0x307 JUMP JUMPDEST PUSH1 0x0 DUP3 DUP2 MSTORE PUSH1 0x20 DUP2 DUP2 MSTORE PUSH1 0x40 SWAP2 DUP3 SWAP1 KECCAK256 DUP3 MLOAD PUSH1 0x60 DUP2 ADD DUP5 MSTORE DUP2 SLOAD DUP1 DUP3 MSTORE PUSH1 0x1 DUP4 ADD SLOAD SWAP4 DUP3 ADD DUP5 SWAP1 MSTORE PUSH1 0x2 SWAP1 SWAP3 ADD SLOAD PUSH1 0x1 PUSH1 0x1 PUSH1 0xA0 SHL SUB AND SWAP4 ADD DUP4 SWAP1 MSTORE DUP4 EQ SWAP2 SWAP3 POP SWAP3 POP SWAP3 JUMP JUMPDEST PUSH1 0x40 DUP1 MLOAD SWAP4 ISZERO ISZERO DUP5 MSTORE PUSH1 0x20 DUP5 ADD SWAP3 SWAP1 SWAP3 MSTORE PUSH1 0x1 PUSH1 0x1 PUSH1 0xA0 SHL SUB AND SWAP1 DUP3 ADD MSTORE PUSH1 0x60 ADD PUSH2 0xCC JUMP JUMPDEST PUSH2 0xE8 PUSH2 0x172 CALLDATASIZE PUSH1 0x4 PUSH2 0x3DA JUMP JUMPDEST PUSH2 0x241 JUMP JUMPDEST PUSH2 0xAC PUSH2 0x185 CALLDATASIZE PUSH1 0x4 PUSH2 0x2EE JUMP JUMPDEST PUSH1 0x0 PUSH1 0x20 DUP2 SWAP1 MSTORE SWAP1 DUP2 MSTORE PUSH1 0x40 SWAP1 KECCAK256 DUP1 SLOAD PUSH1 0x1 DUP3 ADD SLOAD PUSH1 0x2 SWAP1 SWAP3 ADD SLOAD SWAP1 SWAP2 SWAP1 PUSH1 0x1 PUSH1 0x1 PUSH1 0xA0 SHL SUB AND DUP4 JUMP JUMPDEST PUSH1 0x40 DUP1 MLOAD PUSH1 0x60 DUP2 ADD DUP3 MSTORE DUP3 DUP2 MSTORE TIMESTAMP PUSH1 0x20 DUP1 DUP4 ADD SWAP2 DUP3 MSTORE CALLER DUP4 DUP6 ADD DUP2 DUP2 MSTORE PUSH1 0x0 DUP9 DUP2 MSTORE DUP1 DUP5 MSTORE DUP7 SWAP1 KECCAK256 SWAP5 MLOAD DUP6 SSTORE SWAP3 MLOAD PUSH1 0x1 DUP6 ADD SSTORE SWAP2 MLOAD PUSH1 0x2 SWAP1 SWAP4 ADD DUP1 SLOAD PUSH1 0x1 PUSH1 0x1 PUSH1 0xA0 SHL SUB NOT AND PUSH1 0x1 PUSH1 0x1 PUSH1 0xA0 SHL SUB SWAP1 SWAP5 AND SWAP4 SWAP1 SWAP4 OR SWAP1 SWAP3 SSTORE DUP3 MLOAD DUP5 DUP2 MSTORE SWAP2 DUP3 ADD MSTORE DUP4 SWAP2 PUSH32 0x8BFEF2F2AEBFE6BCEB69ECAE86388E8CFB858904D59C7B81295C680B664AB7E3 SWAP2 ADD PUSH1 0x40 MLOAD DUP1 SWAP2 SUB SWAP1 LOG2 POP POP JUMP JUMPDEST DUP1 MLOAD DUP3 MLOAD EQ PUSH2 0x28F JUMPI PUSH1 0x40 MLOAD PUSH3 0x461BCD PUSH1 0xE5 SHL DUP2 MSTORE PUSH1 0x20 PUSH1 0x4 DUP3 ADD MSTORE PUSH1 0x16 PUSH1 0x24 DUP3 ADD MSTORE PUSH22 0x82E4E4C2F2E640D8CADCCEE8D040DAD2E6DAC2E8C6D PUSH1 0x53 SHL PUSH1 0x44 DUP3 ADD MSTORE PUSH1 0x64 ADD PUSH1 0x40 MLOAD DUP1 SWAP2 SUB SWAP1 REVERT JUMPDEST PUSH1 0x0 JUMPDEST DUP3 MLOAD DUP2 LT ISZERO PUSH2 0x2E9 JUMPI PUSH2 0x2D7 DUP4 DUP3 DUP2 MLOAD DUP2 LT PUSH2 0x2B0 JUMPI PUSH2 0x2B0 PUSH2 0x43E JUMP JUMPDEST PUSH1 0x20 MUL PUSH1 0x20 ADD ADD MLOAD DUP4 DUP4 DUP2 MLOAD DUP2 LT PUSH2 0x2CA JUMPI PUSH2 0x2CA PUSH2 0x43E JUMP JUMPDEST PUSH1 0x20 MUL PUSH1 0x20 ADD ADD MLOAD PUSH2 0x1AF JUMP JUMPDEST DUP1 PUSH2 0x2E1 DUP2 PUSH2 0x454 JUMP JUMPDEST SWAP2 POP POP PUSH2 0x292 JUMP JUMPDEST POP POP POP JUMP JUMPDEST PUSH1 0x0 PUSH1 0x20 DUP3 DUP5 SUB SLT ISZERO PUSH2 0x300 JUMPI PUSH1 0x0 DUP1 REVERT JUMPDEST POP CALLDATALOAD SWAP2 SWAP1 POP JUMP JUMPDEST PUSH1 0x0 DUP1 PUSH1 0x40 DUP4 DUP6 SUB SLT ISZERO PUSH2 0x31A JUMPI PUSH1 0x0 DUP1 REVERT JUMPDEST POP POP DUP1 CALLDATALOAD SWAP3 PUSH1 0x20 SWAP1 SWAP2 ADD CALLDATALOAD SWAP2 POP JUMP JUMPDEST PUSH4 0x4E487B71 PUSH1 0xE0 SHL PUSH1 0x0 MSTORE PUSH1 0x41 PUSH1 0x4 MSTORE PUSH1 0x24 PUSH1 0x0 REVERT JUMPDEST PUSH1 0x0 DUP3 PUSH1 0x1F DUP4 ADD SLT PUSH2 0x350 JUMPI PUSH1 0x0 DUP1 REVERT JUMPDEST DUP2 CALLDATALOAD PUSH1 0x20 PUSH8 0xFFFFFFFFFFFFFFFF DUP1 DUP4 GT ISZERO PUSH2 0x36D JUMPI PUSH2 0x36D PUSH2 0x329 JUMP JUMPDEST DUP3 PUSH1 0x5 SHL PUSH1 0x40 MLOAD PUSH1 0x1F NOT PUSH1 0x3F DUP4 ADD AND DUP2 ADD DUP2 DUP2 LT DUP5 DUP3 GT OR ISZERO PUSH2 0x392 JUMPI PUSH2 0x392 PUSH2 0x329 JUMP JUMPDEST PUSH1 0x40 MSTORE SWAP4 DUP5 MSTORE DUP6 DUP2 ADD DUP4 ADD SWAP4 DUP4 DUP2 ADD SWAP3 POP DUP8 DUP6 GT ISZERO PUSH2 0x3B0 JUMPI PUSH1 0x0 DUP1 REVERT JUMPDEST DUP4 DUP8 ADD SWAP2 POP JUMPDEST DUP5 DUP3 LT ISZERO PUSH2 0x3CF JUMPI DUP2 CALLDATALOAD DUP4 MSTORE SWAP2 DUP4 ADD SWAP2 SWAP1 DUP4 ADD SWAP1 PUSH2 0x3B6 JUMP JUMPDEST SWAP8 SWAP7 POP POP POP POP POP POP POP JUMP JUMPDEST PUSH1 0x0 DUP1 PUSH1 0x40 DUP4 DUP6 SUB SLT ISZERO PUSH2 0x3ED JUMPI PUSH1 0x0 DUP1 REVERT JUMPDEST DUP3 CALLDATALOAD PUSH8 0xFFFFFFFFFFFFFFFF DUP1 DUP3 GT ISZERO PUSH2 0x405 JUMPI PUSH1 0x0 DUP1 REVERT JUMPDEST PUSH2 0x411 DUP7 DUP4 DUP8 ADD PUSH2 0x33F JUMP JUMPDEST SWAP4 POP PUSH1 0x20 DUP6 ADD CALLDATALOAD SWAP2 POP DUP1 DUP3 GT ISZERO PUSH2 0x427 JUMPI PUSH1 0x0 DUP1 REVERT JUMPDEST POP PUSH2 0x434 DUP6 DUP3 DUP7 ADD PUSH2 0x33F JUMP JUMPDEST SWAP2 POP POP SWAP3 POP SWAP3 SWAP1 POP JUMP JUMPDEST PUSH4 0x4E487B71 PUSH1 0xE0 SHL PUSH1 0x0 MSTORE PUSH1 0x32 PUSH1 0x4 MSTORE PUSH1 0x24 PUSH1 0x0 REVERT JUMPDEST PUSH1 0x0 PUSH1 0x1 DUP3 ADD PUSH2 0x474 JUMPI PUSH4 0x4E487B71 PUSH1 0xE0 SHL PUSH1 0x0 MSTORE PUSH1 0x11 PUSH1 0x4 MSTORE PUSH1 0x24 PUSH1 0x0 REVERT JUMPDEST POP PUSH1 0x1 ADD SWAP1 JUMP INVALID LOG2 PUSH5 0x6970667358 0x22 SLT KECCAK256 0xD8 0xAB 0x4A SHL MSTORE8 0xCC 0xD5 ADD SWAP15 TIMESTAMP 0x5C MSIZE 0xC4 0xB9 0xC7 SWAP3 0x2E STOP 0xAD 0xC5 DUP10 SWAP3 0xC7 PUSH4 0xF844AE7A KECCAK256 0xC9 0x4B TIMESTAMP PUSH5 0x736F6C6343 STOP ADDMOD SGT STOP CALLER LOG2 PUSH5 0x6970667358 0x22 SLT KECCAK256 SDIV 0xF8 ADD 0xAE SAR 0x1E CHAINID 0xB6 PUSH1 0x73 DUP12 SWAP8 0xE4 0xC3 SDIV LOG0 MULMOD 0x4E 0xF SWAP7 0xA8 PUSH6 0x5E4194EFDD0F 0xAF 0xB5 DUP13 SWAP16 PUSH5 0x736F6C6343 STOP ADDMOD SGT STOP CALLER "},"methodIdentifiers":{"setUp()":"0a9254e4","testBatchUpdateData()":"39bdeca9","testUpdateData()":"2677df71","testVerifyData()":"30c8e6d1","vm()":"3a768463"}}}}}