{
  "_format": "hh-sol-artifact-1",
  "contractName": "BubbleProxy",
  "sourceName": "contracts/BubbleProxy.sol",
  "abi": [
    {
      "inputs": [
        {
          "internalType": "address",
          "name": "_registry",
          "type": "address"
        }
      ],
      "stateMutability": "nonpayable",
      "type": "constructor"
    },
    {
      "anonymous": false,
      "inputs": [
        {
          "indexed": true,
          "internalType": "address",
          "name": "proxy",
          "type": "address"
        },
        {
          "indexed": true,
          "internalType": "bytes32",
          "name": "bubbleId",
          "type": "bytes32"
        }
      ],
      "name": "ProxyPermissionGranted",
      "type": "event"
    },
    {
      "anonymous": false,
      "inputs": [
        {
          "indexed": true,
          "internalType": "address",
          "name": "proxy",
          "type": "address"
        },
        {
          "indexed": true,
          "internalType": "bytes32",
          "name": "bubbleId",
          "type": "bytes32"
        }
      ],
      "name": "ProxyPermissionRevoked",
      "type": "event"
    },
    {
      "anonymous": false,
      "inputs": [
        {
          "indexed": true,
          "internalType": "address",
          "name": "proxy",
          "type": "address"
        },
        {
          "indexed": true,
          "internalType": "address",
          "name": "owner",
          "type": "address"
        }
      ],
      "name": "ProxyRegistered",
      "type": "event"
    },
    {
      "inputs": [
        {
          "internalType": "address",
          "name": "proxy",
          "type": "address"
        },
        {
          "internalType": "bytes32",
          "name": "bubbleId",
          "type": "bytes32"
        }
      ],
      "name": "grantProxyPermission",
      "outputs": [],
      "stateMutability": "nonpayable",
      "type": "function"
    },
    {
      "inputs": [
        {
          "internalType": "bytes32",
          "name": "bubbleId",
          "type": "bytes32"
        }
      ],
      "name": "proxyAccess",
      "outputs": [
        {
          "internalType": "bool",
          "name": "",
          "type": "bool"
        }
      ],
      "stateMutability": "view",
      "type": "function"
    },
    {
      "inputs": [
        {
          "internalType": "address",
          "name": "proxy",
          "type": "address"
        },
        {
          "internalType": "bytes32",
          "name": "bubbleId",
          "type": "bytes32"
        }
      ],
      "name": "proxyHasAccess",
      "outputs": [
        {
          "internalType": "bool",
          "name": "",
          "type": "bool"
        }
      ],
      "stateMutability": "view",
      "type": "function"
    },
    {
      "inputs": [
        {
          "internalType": "address",
          "name": "",
          "type": "address"
        }
      ],
      "name": "proxyOwners",
      "outputs": [
        {
          "internalType": "address",
          "name": "",
          "type": "address"
        }
      ],
      "stateMutability": "view",
      "type": "function"
    },
    {
      "inputs": [
        {
          "internalType": "address",
          "name": "",
          "type": "address"
        },
        {
          "internalType": "bytes32",
          "name": "",
          "type": "bytes32"
        }
      ],
      "name": "proxyPermissions",
      "outputs": [
        {
          "internalType": "bool",
          "name": "",
          "type": "bool"
        }
      ],
      "stateMutability": "view",
      "type": "function"
    },
    {
      "inputs": [
        {
          "internalType": "address",
          "name": "proxy",
          "type": "address"
        }
      ],
      "name": "registerProxy",
      "outputs": [],
      "stateMutability": "nonpayable",
      "type": "function"
    },
    {
      "inputs": [],
      "name": "registry",
      "outputs": [
        {
          "internalType": "contract BubbleRegistry",
          "name": "",
          "type": "address"
        }
      ],
      "stateMutability": "view",
      "type": "function"
    },
    {
      "inputs": [
        {
          "internalType": "address",
          "name": "proxy",
          "type": "address"
        },
        {
          "internalType": "bytes32",
          "name": "bubbleId",
          "type": "bytes32"
        }
      ],
      "name": "revokeProxyPermission",
      "outputs": [],
      "stateMutability": "nonpayable",
      "type": "function"
    }
  ],
  "bytecode": "0x608060405234801561001057600080fd5b506040516106b63803806106b683398101604081905261002f91610054565b600080546001600160a01b0319166001600160a01b0392909216919091179055610084565b60006020828403121561006657600080fd5b81516001600160a01b038116811461007d57600080fd5b9392505050565b610623806100936000396000f3fe608060405234801561001057600080fd5b50600436106100885760003560e01c8063bb466c391161005b578063bb466c3914610123578063cc6212b014610136578063d05335741461015f578063e101f0871461017257600080fd5b8063725aee381461008d5780637b103999146100d0578063810a2197146100fb578063a46c0abe14610110575b600080fd5b6100bb61009b366004610566565b600260209081526000928352604080842090915290825290205460ff1681565b60405190151581526020015b60405180910390f35b6000546100e3906001600160a01b031681565b6040516001600160a01b0390911681526020016100c7565b61010e610109366004610566565b610185565b005b61010e61011e366004610566565b61023c565b6100bb610131366004610590565b6103a6565b6100e36101443660046105a9565b6001602052600090815260409020546001600160a01b031681565b6100bb61016d366004610566565b6103b8565b61010e6101803660046105a9565b61048b565b6001600160a01b038281166000908152600160205260409020541633146101e55760405162461bcd60e51b815260206004820152600f60248201526e2737ba10383937bc3c9037bbb732b960891b60448201526064015b60405180910390fd5b6001600160a01b0382166000818152600260209081526040808320858452909152808220805460ff19169055518392917f65a087ab7ec6e71359807382e21ec3ac819cdebf5125ad81a722f0770b59e89d91a35050565b6001600160a01b038281166000908152600160205260409020541633146102975760405162461bcd60e51b815260206004820152600f60248201526e2737ba10383937bc3c9037bbb732b960891b60448201526064016101dc565b6000546040516383177db360e01b8152600481018390523360248201526001600160a01b03909116906383177db390604401602060405180830381865afa1580156102e6573d6000803e3d6000fd5b505050506040513d601f19601f8201168201806040525081019061030a91906105cb565b61034c5760405162461bcd60e51b81526020600482015260136024820152724e6f2061636365737320746f20627562626c6560681b60448201526064016101dc565b6001600160a01b0382166000818152600260209081526040808320858452909152808220805460ff19166001179055518392917fd32019f55b7fa379d2270577b30b3231afbd225ef1980a059979d2c6367eaf9091a35050565b60006103b233836103b8565b92915050565b6001600160a01b03808316600090815260016020526040812054909116801580159061040757506001600160a01b038416600090815260026020908152604080832086845290915290205460ff165b801561048357506000546040516383177db360e01b8152600481018590526001600160a01b038381166024830152909116906383177db390604401602060405180830381865afa15801561045f573d6000803e3d6000fd5b505050506040513d601f19601f8201168201806040525081019061048391906105cb565b949350505050565b6001600160a01b0381811660009081526001602052604090205416156104f35760405162461bcd60e51b815260206004820152601860248201527f50726f787920616c72656164792072656769737465726564000000000000000060448201526064016101dc565b6001600160a01b03811660008181526001602052604080822080546001600160a01b0319163390811790915590519092917f3623f8bd4da9524cfaa08c81b8194f759ca625e8d761f4cc2cea23e63d3f4b1291a350565b80356001600160a01b038116811461056157600080fd5b919050565b6000806040838503121561057957600080fd5b6105828361054a565b946020939093013593505050565b6000602082840312156105a257600080fd5b5035919050565b6000602082840312156105bb57600080fd5b6105c48261054a565b9392505050565b6000602082840312156105dd57600080fd5b815180151581146105c457600080fdfea2646970667358221220e8cae6a13b848c43416f75ef4a942358c8b8b56f4eabf50f276c0f672af626f964736f6c63430008130033",
  "linkReferences": {},
  "deployedLinkReferences": {}
}