{
  "_format": "hh-sol-artifact-1",
  "contractName": "ProofOfIntegrity",
  "sourceName": "contracts/ProofOfIntegrity.sol",
  "abi": [
    {
      "anonymous": false,
      "inputs": [
        {
          "indexed": true,
          "internalType": "bytes32",
          "name": "nodeId",
          "type": "bytes32"
        },
        {
          "indexed": false,
          "internalType": "bytes32",
          "name": "contentHash",
          "type": "bytes32"
        },
        {
          "indexed": false,
          "internalType": "address",
          "name": "updater",
          "type": "address"
        }
      ],
      "name": "DataUpdated",
      "type": "event"
    },
    {
      "inputs": [
        {
          "internalType": "bytes32[]",
          "name": "nodeIds",
          "type": "bytes32[]"
        },
        {
          "internalType": "bytes32[]",
          "name": "contentHashes",
          "type": "bytes32[]"
        }
      ],
      "name": "batchUpdateData",
      "outputs": [],
      "stateMutability": "nonpayable",
      "type": "function"
    },
    {
      "inputs": [
        {
          "internalType": "bytes32",
          "name": "nodeId",
          "type": "bytes32"
        }
      ],
      "name": "getLatestRecord",
      "outputs": [
        {
          "internalType": "bytes32",
          "name": "",
          "type": "bytes32"
        },
        {
          "internalType": "uint256",
          "name": "",
          "type": "uint256"
        },
        {
          "internalType": "address",
          "name": "",
          "type": "address"
        }
      ],
      "stateMutability": "view",
      "type": "function"
    },
    {
      "inputs": [
        {
          "internalType": "bytes32",
          "name": "",
          "type": "bytes32"
        }
      ],
      "name": "nodeData",
      "outputs": [
        {
          "internalType": "bytes32",
          "name": "contentHash",
          "type": "bytes32"
        },
        {
          "internalType": "uint256",
          "name": "timestamp",
          "type": "uint256"
        },
        {
          "internalType": "address",
          "name": "updater",
          "type": "address"
        }
      ],
      "stateMutability": "view",
      "type": "function"
    },
    {
      "inputs": [
        {
          "internalType": "bytes32",
          "name": "nodeId",
          "type": "bytes32"
        },
        {
          "internalType": "bytes32",
          "name": "contentHash",
          "type": "bytes32"
        }
      ],
      "name": "updateData",
      "outputs": [],
      "stateMutability": "nonpayable",
      "type": "function"
    },
    {
      "inputs": [
        {
          "internalType": "bytes32",
          "name": "nodeId",
          "type": "bytes32"
        },
        {
          "internalType": "bytes32",
          "name": "contentHash",
          "type": "bytes32"
        }
      ],
      "name": "verifyData",
      "outputs": [
        {
          "internalType": "bool",
          "name": "",
          "type": "bool"
        },
        {
          "internalType": "uint256",
          "name": "",
          "type": "uint256"
        },
        {
          "internalType": "address",
          "name": "",
          "type": "address"
        }
      ],
      "stateMutability": "view",
      "type": "function"
    }
  ],
  "bytecode": "0x608060405234801561001057600080fd5b506104b1806100206000396000f3fe608060405234801561001057600080fd5b50600436106100575760003560e01c80634b04c09d1461005c5780637ada1b55146100d5578063ae870014146100ea578063e25fbc6514610164578063f63553b514610177575b600080fd5b6100ac61006a3660046102ee565b600081815260208181526040918290208251606081018452815480825260018301549382018490526002909201546001600160a01b0316930183905293909250565b6040805193845260208401929092526001600160a01b0316908201526060015b60405180910390f35b6100e86100e3366004610307565b6101af565b005b61013e6100f8366004610307565b600082815260208181526040918290208251606081018452815480825260018301549382018490526002909201546001600160a01b031693018390528314919250925092565b60408051931515845260208401929092526001600160a01b0316908201526060016100cc565b6100e86101723660046103da565b610241565b6100ac6101853660046102ee565b6000602081905290815260409020805460018201546002909201549091906001600160a01b031683565b6040805160608101825282815242602080830191825233838501818152600088815280845286902094518555925160018501559151600290930180546001600160a01b0319166001600160a01b039094169390931790925582518481529182015283917f8bfef2f2aebfe6bceb69ecae86388e8cfb858904d59c7b81295c680b664ab7e3910160405180910390a25050565b805182511461028f5760405162461bcd60e51b8152602060048201526016602482015275082e4e4c2f2e640d8cadccee8d040dad2e6dac2e8c6d60531b604482015260640160405180910390fd5b60005b82518110156102e9576102d78382815181106102b0576102b061043e565b60200260200101518383815181106102ca576102ca61043e565b60200260200101516101af565b806102e181610454565b915050610292565b505050565b60006020828403121561030057600080fd5b5035919050565b6000806040838503121561031a57600080fd5b50508035926020909101359150565b634e487b7160e01b600052604160045260246000fd5b600082601f83011261035057600080fd5b8135602067ffffffffffffffff8083111561036d5761036d610329565b8260051b604051601f19603f8301168101818110848211171561039257610392610329565b6040529384528581018301938381019250878511156103b057600080fd5b83870191505b848210156103cf578135835291830191908301906103b6565b979650505050505050565b600080604083850312156103ed57600080fd5b823567ffffffffffffffff8082111561040557600080fd5b6104118683870161033f565b9350602085013591508082111561042757600080fd5b506104348582860161033f565b9150509250929050565b634e487b7160e01b600052603260045260246000fd5b60006001820161047457634e487b7160e01b600052601160045260246000fd5b506001019056fea2646970667358221220d8ab4a1b53ccd5019e425c59c4b9c7922e00adc58992c763f844ae7a20c94b4264736f6c63430008130033",
  "linkReferences": {},
  "deployedLinkReferences": {}
}