{
  "_format": "hh-sol-artifact-1",
  "contractName": "BubbleProxyTest",
  "sourceName": "contracts/tests/BubbleProxy.test.sol",
  "abi": [
    {
      "inputs": [],
      "name": "setUp",
      "outputs": [],
      "stateMutability": "nonpayable",
      "type": "function"
    },
    {
      "inputs": [],
      "name": "testGrantProxyPermission",
      "outputs": [],
      "stateMutability": "nonpayable",
      "type": "function"
    },
    {
      "inputs": [],
      "name": "testProxyAccess",
      "outputs": [],
      "stateMutability": "nonpayable",
      "type": "function"
    },
    {
      "inputs": [],
      "name": "testRegisterProxy",
      "outputs": [],
      "stateMutability": "nonpayable",
      "type": "function"
    },
    {
      "inputs": [],
      "name": "testRevokeProxyPermission",
      "outputs": [],
      "stateMutability": "nonpayable",
      "type": "function"
    },
    {
      "inputs": [],
      "name": "vm",
      "outputs": [
        {
          "internalType": "contract Vm",
          "name": "",
          "type": "address"
        }
      ],
      "stateMutability": "view",
      "type": "function"
    }
  ],
  "bytecode": "0x608060405234801561001057600080fd5b50611f95806100206000396000f3fe608060405234801561001057600080fd5b50600436106100625760003560e01c80630a9254e4146100675780632ffa471e146100715780633a7684631461007957806398344dc1146100b0578063d7d3a12a146100b8578063e6419e46146100c0575b600080fd5b61006f6100c8565b005b61006f61018a565b610094737109709ecfa91a80626ff3989d68f67f5b1dd12d81565b6040516001600160a01b03909116815260200160405180910390f35b61006f6104f9565b61006f6106be565b61006f610967565b6040516100d490610c47565b604051809103906000f0801580156100f0573d6000803e3d6000fd5b50600080546001600160a01b0319166001600160a01b0392909216918217905560405161011c90610c54565b6001600160a01b039091168152602001604051809103906000f080158015610148573d6000803e3d6000fd5b50600180546001600160a01b03929092166001600160a01b03199283161781556002805483169091178155600380548316909117815560048054909216179055565b6002546040516303223eab60e11b81526001600160a01b039091166004820152737109709ecfa91a80626ff3989d68f67f5b1dd12d906306447d5690602401600060405180830381600087803b1580156101e357600080fd5b505af11580156101f7573d6000803e3d6000fd5b505060008054604051630155eb1b60e11b81529193506001600160a01b031691506302abd6369061022d90600190600401610c61565b6020604051808303816000875af115801561024c573d6000803e3d6000fd5b505050506040513d601f19601f820116820180604052508101906102709190610c8e565b6001546004805460405163e101f08760e01b81526001600160a01b039182169281019290925292935091169063e101f08790602401600060405180830381600087803b1580156102bf57600080fd5b505af11580156102d3573d6000803e3d6000fd5b505060015460048054604051635236055f60e11b81526001600160a01b039182169281019290925260248201869052909116925063a46c0abe9150604401600060405180830381600087803b15801561032b57600080fd5b505af115801561033f573d6000803e3d6000fd5b5050604080516390c5013b60e01b81529051737109709ecfa91a80626ff3989d68f67f5b1dd12d93506390c5013b9250600480830192600092919082900301818387803b15801561038f57600080fd5b505af11580156103a3573d6000803e3d6000fd5b5050600480546040516303223eab60e11b81526001600160a01b0390911691810191909152737109709ecfa91a80626ff3989d68f67f5b1dd12d92506306447d569150602401600060405180830381600087803b15801561040357600080fd5b505af1158015610417573d6000803e3d6000fd5b505060015460405163bb466c3960e01b81526004810185905261049293506001600160a01b03909116915063bb466c39906024015b602060405180830381865afa158015610469573d6000803e3d6000fd5b505050506040513d601f19601f8201168201806040525081019061048d9190610ca7565b610b63565b604080516390c5013b60e01b81529051737109709ecfa91a80626ff3989d68f67f5b1dd12d916390c5013b91600480830192600092919082900301818387803b1580156104de57600080fd5b505af11580156104f2573d6000803e3d6000fd5b5050505050565b6002546040516303223eab60e11b81526001600160a01b039091166004820152737109709ecfa91a80626ff3989d68f67f5b1dd12d906306447d5690602401600060405180830381600087803b15801561055257600080fd5b505af1158015610566573d6000803e3d6000fd5b50506001546004805460405163e101f08760e01b81526001600160a01b0391821692810192909252909116925063e101f0879150602401600060405180830381600087803b1580156105b757600080fd5b505af11580156105cb573d6000803e3d6000fd5b505060015460048054604051630cc6212b60e41b81526001600160a01b03918216928101929092526106589450909116915063cc6212b090602401602060405180830381865afa158015610623573d6000803e3d6000fd5b505050506040513d601f19601f820116820180604052508101906106479190610cd0565b6002546001600160a01b0316610bab565b604080516390c5013b60e01b81529051737109709ecfa91a80626ff3989d68f67f5b1dd12d916390c5013b91600480830192600092919082900301818387803b1580156106a457600080fd5b505af11580156106b8573d6000803e3d6000fd5b50505050565b6002546040516303223eab60e11b81526001600160a01b039091166004820152737109709ecfa91a80626ff3989d68f67f5b1dd12d906306447d5690602401600060405180830381600087803b15801561071757600080fd5b505af115801561072b573d6000803e3d6000fd5b505060008054604051630155eb1b60e11b81529193506001600160a01b031691506302abd6369061076190600190600401610c61565b6020604051808303816000875af1158015610780573d6000803e3d6000fd5b505050506040513d601f19601f820116820180604052508101906107a49190610c8e565b6001546004805460405163e101f08760e01b81526001600160a01b039182169281019290925292935091169063e101f08790602401600060405180830381600087803b1580156107f357600080fd5b505af1158015610807573d6000803e3d6000fd5b505060015460048054604051635236055f60e11b81526001600160a01b039182169281019290925260248201869052909116925063a46c0abe9150604401600060405180830381600087803b15801561085f57600080fd5b505af1158015610873573d6000803e3d6000fd5b50506001546004805460405163810a219760e01b81526001600160a01b039182169281019290925260248201869052909116925063810a21979150604401600060405180830381600087803b1580156108cb57600080fd5b505af11580156108df573d6000803e3d6000fd5b505060015460048054604051633414cd5d60e21b81526001600160a01b0391821692810192909252602482018690526104929450909116915063d053357490604401602060405180830381865afa15801561093e573d6000803e3d6000fd5b505050506040513d601f19601f820116820180604052508101906109629190610ca7565b610c06565b6002546040516303223eab60e11b81526001600160a01b039091166004820152737109709ecfa91a80626ff3989d68f67f5b1dd12d906306447d5690602401600060405180830381600087803b1580156109c057600080fd5b505af11580156109d4573d6000803e3d6000fd5b505060008054604051630155eb1b60e11b81529193506001600160a01b031691506302abd63690610a0a90600190600401610c61565b6020604051808303816000875af1158015610a29573d6000803e3d6000fd5b505050506040513d601f19601f82011682018060405250810190610a4d9190610c8e565b6001546004805460405163e101f08760e01b81526001600160a01b039182169281019290925292935091169063e101f08790602401600060405180830381600087803b158015610a9c57600080fd5b505af1158015610ab0573d6000803e3d6000fd5b505060015460048054604051635236055f60e11b81526001600160a01b039182169281019290925260248201869052909116925063a46c0abe9150604401600060405180830381600087803b158015610b0857600080fd5b505af1158015610b1c573d6000803e3d6000fd5b505060015460048054604051633414cd5d60e21b81526001600160a01b0391821692810192909252602482018690526104929450909116915063d05335749060440161044c565b80610ba85760405162461bcd60e51b815260206004820152601060248201526f105cdcd95c9d1a5bdb8819985a5b195960821b60448201526064015b60405180910390fd5b50565b806001600160a01b0316826001600160a01b031614610c025760405162461bcd60e51b81526020600482015260136024820152721059191c995cdcd95cc81b9bdd08195c5d585b606a1b6044820152606401610b9f565b5050565b8015610ba85760405162461bcd60e51b815260206004820152601060248201526f105cdcd95c9d1a5bdb8819985a5b195960821b6044820152606401610b9f565b610bb080610cfa83390190565b6106b6806118aa83390190565b6040808252600b908201526a5465737420427562626c6560a81b6060820152901515602082015260800190565b600060208284031215610ca057600080fd5b5051919050565b600060208284031215610cb957600080fd5b81518015158114610cc957600080fd5b9392505050565b600060208284031215610ce257600080fd5b81516001600160a01b0381168114610cc957600080fdfe608060405234801561001057600080fd5b50610b90806100206000396000f3fe608060405234801561001057600080fd5b506004361061007d5760003560e01c806340554c3a1161005b57806340554c3a146100e057806374291358146100f357806383177db3146101065780638d53b2081461012957600080fd5b806302abd636146100825780631b8fbadc146100a85780631e77a815146100bd575b600080fd5b6100956100903660046107e3565b61013c565b6040519081526020015b60405180910390f35b6100bb6100b63660046108a5565b610274565b005b6100d06100cb3660046108a5565b61031a565b60405161009f949392919061090e565b6100bb6100ee366004610948565b6103d9565b6100d06101013660046108a5565b6104e5565b610119610114366004610948565b6105be565b604051901515815260200161009f565b6100bb610137366004610948565b61060d565b60008083334260405160200161015493929190610984565b60408051601f198184030181529181528151602092830120600081815292839052912060020154909150156101c85760405162461bcd60e51b8152602060048201526015602482015274427562626c6520616c72656164792065786973747360581b60448201526064015b60405180910390fd5b6000818152602081905260409020806101e18682610a4c565b50600180820180546001600160a01b0319163390811790915542600284015560038301805487151560ff199182161790915560008281526004850160205260409081902080549092169093179055905183907ff044551e1b1324af60e5b3736ce9012589d4e1e3061d0f620d20543ce0b06d00906102629089908990610b0c565b60405180910390a35090505b92915050565b6000818152602081905260409020600101546001600160a01b031633146102ad5760405162461bcd60e51b81526004016101bf90610b30565b6000818152602081905260408120906102c68282610762565b506001810180546001600160a01b03191690556000600282018190556003909101805460ff1916905560405182917fa83cbc31505645fe7917ca8af3507febeaac4e845b274dcc9d4b85d0a0cd45fa91a250565b600060208190529081526040902080548190610335906109c3565b80601f0160208091040260200160405190810160405280929190818152602001828054610361906109c3565b80156103ae5780601f10610383576101008083540402835291602001916103ae565b820191906000526020600020905b81548152906001019060200180831161039157829003601f168201915b505050506001830154600284015460039094015492936001600160a01b039091169290915060ff1684565b6000828152602081905260409020600101546001600160a01b031633146104125760405162461bcd60e51b81526004016101bf90610b30565b6000828152602081815260408083206001600160a01b038516845260040190915290205460ff16156104865760405162461bcd60e51b815260206004820152601760248201527f5573657220616c7265616479206861732061636365737300000000000000000060448201526064016101bf565b6000828152602081815260408083206001600160a01b0385168085526004909101909252808320805460ff1916600117905551339285917f7aeffe35f64b55a7c424c5fccc3fba0f3ac4ebd764cc737855b8734834458f2b9190a45050565b600081815260208190526040812060018101546002820154600383015483546060959485948594919384936001600160a01b03909216929160ff90911690849061052e906109c3565b80601f016020809104026020016040519081016040528092919081815260200182805461055a906109c3565b80156105a75780601f1061057c576101008083540402835291602001916105a7565b820191906000526020600020905b81548152906001019060200180831161058a57829003601f168201915b505050505093509450945094509450509193509193565b60008281526020819052604081206003015460ff166105df5750600161026e565b506000828152602081815260408083206001600160a01b038516845260040190915290205460ff1692915050565b6000828152602081905260409020600101546001600160a01b031633146106465760405162461bcd60e51b81526004016101bf90610b30565b336001600160a01b0382160361069e5760405162461bcd60e51b815260206004820152601a60248201527f43616e6e6f74207265766f6b65206f776e65722061636365737300000000000060448201526064016101bf565b6000828152602081815260408083206001600160a01b038516845260040190915290205460ff166107065760405162461bcd60e51b81526020600482015260126024820152715573657220686173206e6f2061636365737360701b60448201526064016101bf565b6000828152602081815260408083206001600160a01b0385168085526004909101909252808320805460ff1916905551339285917ffab19bdeacf1ea13315b1da3f79a3403fe4f16793b6a03eeff9e0bbbea24fe5f9190a45050565b50805461076e906109c3565b6000825580601f1061077e575050565b601f01602090049060005260206000209081019061079c919061079f565b50565b5b808211156107b457600081556001016107a0565b5090565b634e487b7160e01b600052604160045260246000fd5b803580151581146107de57600080fd5b919050565b600080604083850312156107f657600080fd5b823567ffffffffffffffff8082111561080e57600080fd5b818501915085601f83011261082257600080fd5b813581811115610834576108346107b8565b604051601f8201601f19908116603f0116810190838211818310171561085c5761085c6107b8565b8160405282815288602084870101111561087557600080fd5b82602086016020830137600060208483010152809650505050505061089c602084016107ce565b90509250929050565b6000602082840312156108b757600080fd5b5035919050565b60005b838110156108d95781810151838201526020016108c1565b50506000910152565b600081518084526108fa8160208601602086016108be565b601f01601f19169290920160200192915050565b60808152600061092160808301876108e2565b6001600160a01b039590951660208301525060408101929092521515606090910152919050565b6000806040838503121561095b57600080fd5b8235915060208301356001600160a01b038116811461097957600080fd5b809150509250929050565b600084516109968184602089016108be565b60609490941b6bffffffffffffffffffffffff191691909301908152601481019190915260340192915050565b600181811c908216806109d757607f821691505b6020821081036109f757634e487b7160e01b600052602260045260246000fd5b50919050565b601f821115610a4757600081815260208120601f850160051c81016020861015610a245750805b601f850160051c820191505b81811015610a4357828155600101610a30565b5050505b505050565b815167ffffffffffffffff811115610a6657610a666107b8565b610a7a81610a7484546109c3565b846109fd565b602080601f831160018114610aaf5760008415610a975750858301515b600019600386901b1c1916600185901b178555610a43565b600085815260208120601f198616915b82811015610ade57888601518255948401946001909101908401610abf565b5085821015610afc5787850151600019600388901b60f8161c191681555b5050505050600190811b01905550565b604081526000610b1f60408301856108e2565b905082151560208301529392505050565b60208082526010908201526f2737ba10313ab13136329037bbb732b960811b60408201526060019056fea2646970667358221220f9a873287a60effd7137ca1e0056e6b461b1013534f0cd40351a0e6cb500070564736f6c63430008130033608060405234801561001057600080fd5b506040516106b63803806106b683398101604081905261002f91610054565b600080546001600160a01b0319166001600160a01b0392909216919091179055610084565b60006020828403121561006657600080fd5b81516001600160a01b038116811461007d57600080fd5b9392505050565b610623806100936000396000f3fe608060405234801561001057600080fd5b50600436106100885760003560e01c8063bb466c391161005b578063bb466c3914610123578063cc6212b014610136578063d05335741461015f578063e101f0871461017257600080fd5b8063725aee381461008d5780637b103999146100d0578063810a2197146100fb578063a46c0abe14610110575b600080fd5b6100bb61009b366004610566565b600260209081526000928352604080842090915290825290205460ff1681565b60405190151581526020015b60405180910390f35b6000546100e3906001600160a01b031681565b6040516001600160a01b0390911681526020016100c7565b61010e610109366004610566565b610185565b005b61010e61011e366004610566565b61023c565b6100bb610131366004610590565b6103a6565b6100e36101443660046105a9565b6001602052600090815260409020546001600160a01b031681565b6100bb61016d366004610566565b6103b8565b61010e6101803660046105a9565b61048b565b6001600160a01b038281166000908152600160205260409020541633146101e55760405162461bcd60e51b815260206004820152600f60248201526e2737ba10383937bc3c9037bbb732b960891b60448201526064015b60405180910390fd5b6001600160a01b0382166000818152600260209081526040808320858452909152808220805460ff19169055518392917f65a087ab7ec6e71359807382e21ec3ac819cdebf5125ad81a722f0770b59e89d91a35050565b6001600160a01b038281166000908152600160205260409020541633146102975760405162461bcd60e51b815260206004820152600f60248201526e2737ba10383937bc3c9037bbb732b960891b60448201526064016101dc565b6000546040516383177db360e01b8152600481018390523360248201526001600160a01b03909116906383177db390604401602060405180830381865afa1580156102e6573d6000803e3d6000fd5b505050506040513d601f19601f8201168201806040525081019061030a91906105cb565b61034c5760405162461bcd60e51b81526020600482015260136024820152724e6f2061636365737320746f20627562626c6560681b60448201526064016101dc565b6001600160a01b0382166000818152600260209081526040808320858452909152808220805460ff19166001179055518392917fd32019f55b7fa379d2270577b30b3231afbd225ef1980a059979d2c6367eaf9091a35050565b60006103b233836103b8565b92915050565b6001600160a01b03808316600090815260016020526040812054909116801580159061040757506001600160a01b038416600090815260026020908152604080832086845290915290205460ff165b801561048357506000546040516383177db360e01b8152600481018590526001600160a01b038381166024830152909116906383177db390604401602060405180830381865afa15801561045f573d6000803e3d6000fd5b505050506040513d601f19601f8201168201806040525081019061048391906105cb565b949350505050565b6001600160a01b0381811660009081526001602052604090205416156104f35760405162461bcd60e51b815260206004820152601860248201527f50726f787920616c72656164792072656769737465726564000000000000000060448201526064016101dc565b6001600160a01b03811660008181526001602052604080822080546001600160a01b0319163390811790915590519092917f3623f8bd4da9524cfaa08c81b8194f759ca625e8d761f4cc2cea23e63d3f4b1291a350565b80356001600160a01b038116811461056157600080fd5b919050565b6000806040838503121561057957600080fd5b6105828361054a565b946020939093013593505050565b6000602082840312156105a257600080fd5b5035919050565b6000602082840312156105bb57600080fd5b6105c48261054a565b9392505050565b6000602082840312156105dd57600080fd5b815180151581146105c457600080fdfea2646970667358221220e8cae6a13b848c43416f75ef4a942358c8b8b56f4eabf50f276c0f672af626f964736f6c63430008130033a26469706673582212201b1d6094c1b7309e5057614825b96b4e5cb2ee4f668287b8d3985e39e553c7e064736f6c63430008130033",
  "linkReferences": {},
  "deployedLinkReferences": {}
}