{
  "_format": "hh-sol-artifact-1",
  "contractName": "ProofOfIntegrityTest",
  "sourceName": "contracts/tests/ProofOfIntegrity.test.sol",
  "abi": [
    {
      "inputs": [],
      "name": "setUp",
      "outputs": [],
      "stateMutability": "nonpayable",
      "type": "function"
    },
    {
      "inputs": [],
      "name": "testBatchUpdateData",
      "outputs": [],
      "stateMutability": "nonpayable",
      "type": "function"
    },
    {
      "inputs": [],
      "name": "testUpdateData",
      "outputs": [],
      "stateMutability": "nonpayable",
      "type": "function"
    },
    {
      "inputs": [],
      "name": "testVerifyData",
      "outputs": [],
      "stateMutability": "nonpayable",
      "type": "function"
    },
    {
      "inputs": [],
      "name": "vm",
      "outputs": [
        {
          "internalType": "contract Vm",
          "name": "",
          "type": "address"
        }
      ],
      "stateMutability": "view",
      "type": "function"
    }
  ],
  "bytecode": "0x608060405234801561001057600080fd5b50610dce806100206000396000f3fe608060405234801561001057600080fd5b50600436106100575760003560e01c80630a9254e41461005c5780632677df711461006657806330c8e6d11461006e57806339bdeca9146100765780633a7684631461007e575b600080fd5b6100646100b5565b005b610064610187565b61006461029b565b6100646103aa565b610099737109709ecfa91a80626ff3989d68f67f5b1dd12d81565b6040516001600160a01b03909116815260200160405180910390f35b6040516100c1906107af565b604051809103906000f0801580156100dd573d6000803e3d6000fd5b50600080546001600160a01b0319166001600160a01b03929092169190911790556040805180820182526009815268746573742d6e6f646560b81b6020918201527ff6f5d3b6218e07288451f415e2a5a00eaf568bc534e9ea1e2c8a44190f5855396001558151808301909252600c82526b1d195cdd0b58dbdb9d195b9d60a21b9101527f8aa04bc8840739a61d1d93a6c1135d94b473428859ad9c57aa47d02f8b9f3241600255565b600054600154600254604051637ada1b5560e01b8152600481019290925260248201526001600160a01b0390911690637ada1b5590604401600060405180830381600087803b1580156101d957600080fd5b505af11580156101ed573d6000803e3d6000fd5b505060008054600154604051634b04c09d60e01b815292945084935083926001600160a01b0390921691634b04c09d9161022d9160040190815260200190565b606060405180830381865afa15801561024a573d6000803e3d6000fd5b505050506040513d601f19601f8201168201806040525081019061026e91906107d8565b925092509250610280836002546106c9565b61028a8130610715565b6102966000831161076c565b505050565b600054600154600254604051637ada1b5560e01b8152600481019290925260248201526001600160a01b0390911690637ada1b5590604401600060405180830381600087803b1580156102ed57600080fd5b505af1158015610301573d6000803e3d6000fd5b505060008054600154600254604051632ba1c00560e21b81526004810192909252602482015291935083925082916001600160a01b039091169063ae87001490604401606060405180830381865afa158015610361573d6000803e3d6000fd5b505050506040513d601f19601f82011682018060405250810190610385919061080d565b9250925092506103948361076c565b6103a06000831161076c565b6102968130610715565b6040805160028082526060820183526000926020830190803683370190505090507f7fc20c8d9d9e947c46260ce3f2c668e1d180b3ea7271221762252552d10f68d4816000815181106103ff576103ff610848565b6020026020010181815250507f12412054d2902a72739578e4db2d30127d42d3fbd266b6401d401de759273ff38160018151811061043f5761043f610848565b6020908102919091010152604080516002808252606082019092526000918160200160208202803683370190505090507f397377778b65288382218837c69247cd1ec792d2e67be47ed45514d529e1c239816000815181106104a3576104a3610848565b6020026020010181815250507f2e112640cec37046c7d1362ca75798a78b0d31a73d08359539ae1ec9b0053824816001815181106104e3576104e3610848565b602090810291909101015260005460405163e25fbc6560e01b81526001600160a01b039091169063e25fbc65906105209085908590600401610899565b600060405180830381600087803b15801561053a57600080fd5b505af115801561054e573d6000803e3d6000fd5b50506000805485519193506001600160a01b03169150634b04c09d908590849061057a5761057a610848565b60200260200101516040518263ffffffff1660e01b81526004016105a091815260200190565b606060405180830381865afa1580156105bd573d6000803e3d6000fd5b505050506040513d601f19601f820116820180604052508101906105e191906107d8565b5050905060008060009054906101000a90046001600160a01b03166001600160a01b0316634b04c09d8560018151811061061d5761061d610848565b60200260200101516040518263ffffffff1660e01b815260040161064391815260200190565b606060405180830381865afa158015610660573d6000803e3d6000fd5b505050506040513d601f19601f8201168201806040525081019061068491906107d8565b505090506106ac828460008151811061069f5761069f610848565b60200260200101516106c9565b6106c3818460018151811061069f5761069f610848565b50505050565b8082146107115760405162461bcd60e51b8152602060048201526011602482015270109e5d195ccccc881b9bdd08195c5d585b607a1b60448201526064015b60405180910390fd5b5050565b806001600160a01b0316826001600160a01b0316146107115760405162461bcd60e51b81526020600482015260136024820152721059191c995cdcd95cc81b9bdd08195c5d585b606a1b6044820152606401610708565b806107ac5760405162461bcd60e51b815260206004820152601060248201526f105cdcd95c9d1a5bdb8819985a5b195960821b6044820152606401610708565b50565b6104d1806108c883390190565b80516001600160a01b03811681146107d357600080fd5b919050565b6000806000606084860312156107ed57600080fd5b8351925060208401519150610804604085016107bc565b90509250925092565b60008060006060848603121561082257600080fd5b8351801515811461083257600080fd5b60208501519093509150610804604085016107bc565b634e487b7160e01b600052603260045260246000fd5b600081518084526020808501945080840160005b8381101561088e57815187529582019590820190600101610872565b509495945050505050565b6040815260006108ac604083018561085e565b82810360208401526108be818561085e565b9594505050505056fe608060405234801561001057600080fd5b506104b1806100206000396000f3fe608060405234801561001057600080fd5b50600436106100575760003560e01c80634b04c09d1461005c5780637ada1b55146100d5578063ae870014146100ea578063e25fbc6514610164578063f63553b514610177575b600080fd5b6100ac61006a3660046102ee565b600081815260208181526040918290208251606081018452815480825260018301549382018490526002909201546001600160a01b0316930183905293909250565b6040805193845260208401929092526001600160a01b0316908201526060015b60405180910390f35b6100e86100e3366004610307565b6101af565b005b61013e6100f8366004610307565b600082815260208181526040918290208251606081018452815480825260018301549382018490526002909201546001600160a01b031693018390528314919250925092565b60408051931515845260208401929092526001600160a01b0316908201526060016100cc565b6100e86101723660046103da565b610241565b6100ac6101853660046102ee565b6000602081905290815260409020805460018201546002909201549091906001600160a01b031683565b6040805160608101825282815242602080830191825233838501818152600088815280845286902094518555925160018501559151600290930180546001600160a01b0319166001600160a01b039094169390931790925582518481529182015283917f8bfef2f2aebfe6bceb69ecae86388e8cfb858904d59c7b81295c680b664ab7e3910160405180910390a25050565b805182511461028f5760405162461bcd60e51b8152602060048201526016602482015275082e4e4c2f2e640d8cadccee8d040dad2e6dac2e8c6d60531b604482015260640160405180910390fd5b60005b82518110156102e9576102d78382815181106102b0576102b061043e565b60200260200101518383815181106102ca576102ca61043e565b60200260200101516101af565b806102e181610454565b915050610292565b505050565b60006020828403121561030057600080fd5b5035919050565b6000806040838503121561031a57600080fd5b50508035926020909101359150565b634e487b7160e01b600052604160045260246000fd5b600082601f83011261035057600080fd5b8135602067ffffffffffffffff8083111561036d5761036d610329565b8260051b604051601f19603f8301168101818110848211171561039257610392610329565b6040529384528581018301938381019250878511156103b057600080fd5b83870191505b848210156103cf578135835291830191908301906103b6565b979650505050505050565b600080604083850312156103ed57600080fd5b823567ffffffffffffffff8082111561040557600080fd5b6104118683870161033f565b9350602085013591508082111561042757600080fd5b506104348582860161033f565b9150509250929050565b634e487b7160e01b600052603260045260246000fd5b60006001820161047457634e487b7160e01b600052601160045260246000fd5b506001019056fea2646970667358221220d8ab4a1b53ccd5019e425c59c4b9c7922e00adc58992c763f844ae7a20c94b4264736f6c63430008130033a264697066735822122005f801ae1d1e46b660738b97e4c305a0094e0f96a8655e4194efdd0fafb58c9f64736f6c63430008130033",
  "linkReferences": {},
  "deployedLinkReferences": {}
}