{
  "_format": "hh-sol-artifact-1",
  "contractName": "ProofOfIntegrity",
  "sourceName": "contracts/ProofOfIntegrity.sol",
  "abi": [
    {
      "anonymous": false,
      "inputs": [
        {
          "indexed": true,
          "internalType": "bytes",
          "name": "nodeId",
          "type": "bytes"
        },
        {
          "indexed": false,
          "internalType": "bytes32",
          "name": "contentHash",
          "type": "bytes32"
        },
        {
          "indexed": false,
          "internalType": "address",
          "name": "updater",
          "type": "address"
        }
      ],
      "name": "DataUpdated",
      "type": "event"
    },
    {
      "inputs": [
        {
          "internalType": "bytes[]",
          "name": "nodeIds",
          "type": "bytes[]"
        },
        {
          "internalType": "bytes32[]",
          "name": "contentHashes",
          "type": "bytes32[]"
        }
      ],
      "name": "batchUpdateData",
      "outputs": [],
      "stateMutability": "nonpayable",
      "type": "function"
    },
    {
      "inputs": [
        {
          "internalType": "bytes",
          "name": "nodeId",
          "type": "bytes"
        }
      ],
      "name": "getLatestRecord",
      "outputs": [
        {
          "internalType": "bytes32",
          "name": "",
          "type": "bytes32"
        },
        {
          "internalType": "uint256",
          "name": "",
          "type": "uint256"
        },
        {
          "internalType": "address",
          "name": "",
          "type": "address"
        }
      ],
      "stateMutability": "view",
      "type": "function"
    },
    {
      "inputs": [
        {
          "internalType": "bytes",
          "name": "",
          "type": "bytes"
        }
      ],
      "name": "nodeData",
      "outputs": [
        {
          "internalType": "bytes32",
          "name": "contentHash",
          "type": "bytes32"
        },
        {
          "internalType": "uint256",
          "name": "timestamp",
          "type": "uint256"
        },
        {
          "internalType": "address",
          "name": "updater",
          "type": "address"
        }
      ],
      "stateMutability": "view",
      "type": "function"
    },
    {
      "inputs": [
        {
          "internalType": "bytes",
          "name": "nodeId",
          "type": "bytes"
        },
        {
          "internalType": "bytes32",
          "name": "contentHash",
          "type": "bytes32"
        }
      ],
      "name": "updateData",
      "outputs": [],
      "stateMutability": "nonpayable",
      "type": "function"
    },
    {
      "inputs": [
        {
          "internalType": "bytes",
          "name": "nodeId",
          "type": "bytes"
        },
        {
          "internalType": "bytes32",
          "name": "contentHash",
          "type": "bytes32"
        }
      ],
      "name": "verifyData",
      "outputs": [
        {
          "internalType": "bool",
          "name": "",
          "type": "bool"
        },
        {
          "internalType": "uint256",
          "name": "",
          "type": "uint256"
        },
        {
          "internalType": "address",
          "name": "",
          "type": "address"
        }
      ],
      "stateMutability": "view",
      "type": "function"
    }
  ],
  "bytecode": "0x608060405234801561001057600080fd5b50610bfa806100206000396000f3fe608060405234801561001057600080fd5b50600436106100575760003560e01c80630d36830e1461005c5780630f07e48514610078578063d236feda14610094578063d54193d7146100c6578063d58a3de3146100f8575b600080fd5b610076600480360381019061007191906107e1565b61012a565b005b610092600480360381019061008d9190610859565b6101d0565b005b6100ae60048036038101906100a99190610859565b6102d0565b6040516100bd9392919061092a565b60405180910390f35b6100e060048036038101906100db9190610961565b610390565b6040516100ef939291906109b9565b60405180910390f35b610112600480360381019061010d9190610961565b610448565b604051610121939291906109b9565b60405180910390f35b805182511461016e576040517f08c379a000000000000000000000000000000000000000000000000000000000815260040161016590610a4d565b60405180910390fd5b60005b82518110156101cb576101b88382815181106101905761018f610a6d565b5b60200260200101518383815181106101ab576101aa610a6d565b5b60200260200101516101d0565b80806101c390610acb565b915050610171565b505050565b60405180606001604052808281526020014281526020013373ffffffffffffffffffffffffffffffffffffffff168152506000836040516102119190610b84565b9081526020016040518091039020600082015181600001556020820151816001015560408201518160020160006101000a81548173ffffffffffffffffffffffffffffffffffffffff021916908373ffffffffffffffffffffffffffffffffffffffff1602179055509050508160405161028b9190610b84565b60405180910390207fac3d4f3cbf6818c9329b6b8c61e41d9dc52fc1cc580fff6af273be3ebc1d423f82336040516102c4929190610b9b565b60405180910390a25050565b6000806000806000866040516102e69190610b84565b908152602001604051809103902060405180606001604052908160008201548152602001600182015481526020016002820160009054906101000a900473ffffffffffffffffffffffffffffffffffffffff1673ffffffffffffffffffffffffffffffffffffffff1673ffffffffffffffffffffffffffffffffffffffff168152505090506000858260000151149050808260200151836040015194509450945050509250925092565b6000806000806000856040516103a69190610b84565b908152602001604051809103902060405180606001604052908160008201548152602001600182015481526020016002820160009054906101000a900473ffffffffffffffffffffffffffffffffffffffff1673ffffffffffffffffffffffffffffffffffffffff1673ffffffffffffffffffffffffffffffffffffffff16815250509050806000015181602001518260400151935093509350509193909250565b6000818051602081018201805184825260208301602085012081835280955050505050506000915090508060000154908060010154908060020160009054906101000a900473ffffffffffffffffffffffffffffffffffffffff16905083565b6000604051905090565b600080fd5b600080fd5b600080fd5b6000601f19601f8301169050919050565b7f4e487b7100000000000000000000000000000000000000000000000000000000600052604160045260246000fd5b61050a826104c1565b810181811067ffffffffffffffff82111715610529576105286104d2565b5b80604052505050565b600061053c6104a8565b90506105488282610501565b919050565b600067ffffffffffffffff821115610568576105676104d2565b5b602082029050602081019050919050565b600080fd5b600080fd5b600067ffffffffffffffff82111561059e5761059d6104d2565b5b6105a7826104c1565b9050602081019050919050565b82818337600083830152505050565b60006105d66105d184610583565b610532565b9050828152602081018484840111156105f2576105f161057e565b5b6105fd8482856105b4565b509392505050565b600082601f83011261061a576106196104bc565b5b813561062a8482602086016105c3565b91505092915050565b60006106466106418461054d565b610532565b9050808382526020820190506020840283018581111561066957610668610579565b5b835b818110156106b057803567ffffffffffffffff81111561068e5761068d6104bc565b5b80860161069b8982610605565b8552602085019450505060208101905061066b565b5050509392505050565b600082601f8301126106cf576106ce6104bc565b5b81356106df848260208601610633565b91505092915050565b600067ffffffffffffffff821115610703576107026104d2565b5b602082029050602081019050919050565b6000819050919050565b61072781610714565b811461073257600080fd5b50565b6000813590506107448161071e565b92915050565b600061075d610758846106e8565b610532565b905080838252602082019050602084028301858111156107805761077f610579565b5b835b818110156107a957806107958882610735565b845260208401935050602081019050610782565b5050509392505050565b600082601f8301126107c8576107c76104bc565b5b81356107d884826020860161074a565b91505092915050565b600080604083850312156107f8576107f76104b2565b5b600083013567ffffffffffffffff811115610816576108156104b7565b5b610822858286016106ba565b925050602083013567ffffffffffffffff811115610843576108426104b7565b5b61084f858286016107b3565b9150509250929050565b600080604083850312156108705761086f6104b2565b5b600083013567ffffffffffffffff81111561088e5761088d6104b7565b5b61089a85828601610605565b92505060206108ab85828601610735565b9150509250929050565b60008115159050919050565b6108ca816108b5565b82525050565b6000819050919050565b6108e3816108d0565b82525050565b600073ffffffffffffffffffffffffffffffffffffffff82169050919050565b6000610914826108e9565b9050919050565b61092481610909565b82525050565b600060608201905061093f60008301866108c1565b61094c60208301856108da565b610959604083018461091b565b949350505050565b600060208284031215610977576109766104b2565b5b600082013567ffffffffffffffff811115610995576109946104b7565b5b6109a184828501610605565b91505092915050565b6109b381610714565b82525050565b60006060820190506109ce60008301866109aa565b6109db60208301856108da565b6109e8604083018461091b565b949350505050565b600082825260208201905092915050565b7f417272617973206c656e677468206d69736d6174636800000000000000000000600082015250565b6000610a376016836109f0565b9150610a4282610a01565b602082019050919050565b60006020820190508181036000830152610a6681610a2a565b9050919050565b7f4e487b7100000000000000000000000000000000000000000000000000000000600052603260045260246000fd5b7f4e487b7100000000000000000000000000000000000000000000000000000000600052601160045260246000fd5b6000610ad6826108d0565b91507fffffffffffffffffffffffffffffffffffffffffffffffffffffffffffffffff8203610b0857610b07610a9c565b5b600182019050919050565b600081519050919050565b600081905092915050565b60005b83811015610b47578082015181840152602081019050610b2c565b60008484015250505050565b6000610b5e82610b13565b610b688185610b1e565b9350610b78818560208601610b29565b80840191505092915050565b6000610b908284610b53565b915081905092915050565b6000604082019050610bb060008301856109aa565b610bbd602083018461091b565b939250505056fea26469706673582212202c08ba0055df02613ec301b91b18a8d1cd5ff30ed819e666821ac5feca408c1464736f6c63430008130033",
  "linkReferences": {},
  "deployedLinkReferences": {}
}