{
  "_format": "hh-sol-artifact-1",
  "contractName": "BubbleRegistry",
  "sourceName": "contracts/BubbleRegistry.sol",
  "abi": [
    {
      "anonymous": false,
      "inputs": [
        {
          "indexed": true,
          "internalType": "bytes32",
          "name": "bubbleId",
          "type": "bytes32"
        },
        {
          "indexed": true,
          "internalType": "address",
          "name": "user",
          "type": "address"
        },
        {
          "indexed": true,
          "internalType": "address",
          "name": "grantor",
          "type": "address"
        }
      ],
      "name": "AccessGranted",
      "type": "event"
    },
    {
      "anonymous": false,
      "inputs": [
        {
          "indexed": true,
          "internalType": "bytes32",
          "name": "bubbleId",
          "type": "bytes32"
        },
        {
          "indexed": true,
          "internalType": "address",
          "name": "user",
          "type": "address"
        },
        {
          "indexed": true,
          "internalType": "address",
          "name": "revoker",
          "type": "address"
        }
      ],
      "name": "AccessRevoked",
      "type": "event"
    },
    {
      "anonymous": false,
      "inputs": [
        {
          "indexed": true,
          "internalType": "bytes32",
          "name": "bubbleId",
          "type": "bytes32"
        },
        {
          "indexed": false,
          "internalType": "string",
          "name": "name",
          "type": "string"
        },
        {
          "indexed": true,
          "internalType": "address",
          "name": "owner",
          "type": "address"
        },
        {
          "indexed": false,
          "internalType": "bool",
          "name": "isPrivate",
          "type": "bool"
        }
      ],
      "name": "BubbleCreated",
      "type": "event"
    },
    {
      "anonymous": false,
      "inputs": [
        {
          "indexed": true,
          "internalType": "bytes32",
          "name": "bubbleId",
          "type": "bytes32"
        }
      ],
      "name": "BubbleDeleted",
      "type": "event"
    },
    {
      "inputs": [
        {
          "internalType": "bytes32",
          "name": "",
          "type": "bytes32"
        }
      ],
      "name": "bubbles",
      "outputs": [
        {
          "internalType": "string",
          "name": "name",
          "type": "string"
        },
        {
          "internalType": "address",
          "name": "owner",
          "type": "address"
        },
        {
          "internalType": "uint256",
          "name": "createdAt",
          "type": "uint256"
        },
        {
          "internalType": "bool",
          "name": "isPrivate",
          "type": "bool"
        }
      ],
      "stateMutability": "view",
      "type": "function"
    },
    {
      "inputs": [
        {
          "internalType": "string",
          "name": "name",
          "type": "string"
        },
        {
          "internalType": "bool",
          "name": "isPrivate",
          "type": "bool"
        }
      ],
      "name": "createBubble",
      "outputs": [
        {
          "internalType": "bytes32",
          "name": "",
          "type": "bytes32"
        }
      ],
      "stateMutability": "nonpayable",
      "type": "function"
    },
    {
      "inputs": [
        {
          "internalType": "bytes32",
          "name": "bubbleId",
          "type": "bytes32"
        }
      ],
      "name": "deleteBubble",
      "outputs": [],
      "stateMutability": "nonpayable",
      "type": "function"
    },
    {
      "inputs": [
        {
          "internalType": "bytes32",
          "name": "bubbleId",
          "type": "bytes32"
        }
      ],
      "name": "getBubbleDetails",
      "outputs": [
        {
          "internalType": "string",
          "name": "name",
          "type": "string"
        },
        {
          "internalType": "address",
          "name": "owner",
          "type": "address"
        },
        {
          "internalType": "uint256",
          "name": "createdAt",
          "type": "uint256"
        },
        {
          "internalType": "bool",
          "name": "isPrivate",
          "type": "bool"
        }
      ],
      "stateMutability": "view",
      "type": "function"
    },
    {
      "inputs": [
        {
          "internalType": "bytes32",
          "name": "bubbleId",
          "type": "bytes32"
        },
        {
          "internalType": "address",
          "name": "user",
          "type": "address"
        }
      ],
      "name": "grantAccess",
      "outputs": [],
      "stateMutability": "nonpayable",
      "type": "function"
    },
    {
      "inputs": [
        {
          "internalType": "bytes32",
          "name": "bubbleId",
          "type": "bytes32"
        },
        {
          "internalType": "address",
          "name": "user",
          "type": "address"
        }
      ],
      "name": "hasAccess",
      "outputs": [
        {
          "internalType": "bool",
          "name": "",
          "type": "bool"
        }
      ],
      "stateMutability": "view",
      "type": "function"
    },
    {
      "inputs": [
        {
          "internalType": "bytes32",
          "name": "bubbleId",
          "type": "bytes32"
        },
        {
          "internalType": "address",
          "name": "user",
          "type": "address"
        }
      ],
      "name": "revokeAccess",
      "outputs": [],
      "stateMutability": "nonpayable",
      "type": "function"
    }
  ],
  "bytecode": "0x608060405234801561001057600080fd5b50611675806100206000396000f3fe608060405234801561001057600080fd5b506004361061007d5760003560e01c806340554c3a1161005b57806340554c3a14610101578063742913581461011d57806383177db3146101505780638d53b208146101805761007d565b806302abd636146100825780631b8fbadc146100b25780631e77a815146100ce575b600080fd5b61009c60048036038101906100979190610d93565b61019c565b6040516100a99190610e08565b60405180910390f35b6100cc60048036038101906100c79190610e4f565b61036a565b005b6100e860048036038101906100e39190610e4f565b6104a5565b6040516100f89493929190610f64565b60405180910390f35b61011b60048036038101906101169190610fdc565b61058a565b005b61013760048036038101906101329190610e4f565b610797565b6040516101479493929190610f64565b60405180910390f35b61016a60048036038101906101659190610fdc565b61088f565b604051610177919061101c565b60405180910390f35b61019a60048036038101906101959190610fdc565b61092a565b005b6000808333426040516020016101b4939291906110dc565b60405160208183030381529060405280519060200120905060008060008381526020019081526020016000206002015414610224576040517f08c379a000000000000000000000000000000000000000000000000000000000815260040161021b90611161565b60405180910390fd5b600080600083815260200190815260200160002090508481600001908161024b919061138d565b50338160010160006101000a81548173ffffffffffffffffffffffffffffffffffffffff021916908373ffffffffffffffffffffffffffffffffffffffff160217905550428160020181905550838160030160006101000a81548160ff02191690831515021790555060018160040160003373ffffffffffffffffffffffffffffffffffffffff1673ffffffffffffffffffffffffffffffffffffffff16815260200190815260200160002060006101000a81548160ff0219169083151502179055503373ffffffffffffffffffffffffffffffffffffffff16827ff044551e1b1324af60e5b3736ce9012589d4e1e3061d0f620d20543ce0b06d00878760405161035792919061145f565b60405180910390a3819250505092915050565b3373ffffffffffffffffffffffffffffffffffffffff1660008083815260200190815260200160002060010160009054906101000a900473ffffffffffffffffffffffffffffffffffffffff1673ffffffffffffffffffffffffffffffffffffffff161461040d576040517f08c379a0000000000000000000000000000000000000000000000000000000008152600401610404906114db565b60405180910390fd5b600080828152602001908152602001600020600080820160006104309190610ba4565b6001820160006101000a81549073ffffffffffffffffffffffffffffffffffffffff021916905560028201600090556003820160006101000a81549060ff02191690555050807fa83cbc31505645fe7917ca8af3507febeaac4e845b274dcc9d4b85d0a0cd45fa60405160405180910390a250565b60006020528060005260406000206000915090508060000180546104c8906111b0565b80601f01602080910402602001604051908101604052809291908181526020018280546104f4906111b0565b80156105415780601f1061051657610100808354040283529160200191610541565b820191906000526020600020905b81548152906001019060200180831161052457829003601f168201915b5050505050908060010160009054906101000a900473ffffffffffffffffffffffffffffffffffffffff16908060020154908060030160009054906101000a900460ff16905084565b3373ffffffffffffffffffffffffffffffffffffffff1660008084815260200190815260200160002060010160009054906101000a900473ffffffffffffffffffffffffffffffffffffffff1673ffffffffffffffffffffffffffffffffffffffff161461062d576040517f08c379a0000000000000000000000000000000000000000000000000000000008152600401610624906114db565b60405180910390fd5b60008083815260200190815260200160002060040160008273ffffffffffffffffffffffffffffffffffffffff1673ffffffffffffffffffffffffffffffffffffffff16815260200190815260200160002060009054906101000a900460ff16156106cd576040517f08c379a00000000000000000000000000000000000000000000000000000000081526004016106c490611547565b60405180910390fd5b600160008084815260200190815260200160002060040160008373ffffffffffffffffffffffffffffffffffffffff1673ffffffffffffffffffffffffffffffffffffffff16815260200190815260200160002060006101000a81548160ff0219169083151502179055503373ffffffffffffffffffffffffffffffffffffffff168173ffffffffffffffffffffffffffffffffffffffff16837f7aeffe35f64b55a7c424c5fccc3fba0f3ac4ebd764cc737855b8734834458f2b60405160405180910390a45050565b60606000806000806000808781526020019081526020016000209050806000018160010160009054906101000a900473ffffffffffffffffffffffffffffffffffffffff1682600201548360030160009054906101000a900460ff168380546107ff906111b0565b80601f016020809104026020016040519081016040528092919081815260200182805461082b906111b0565b80156108785780601f1061084d57610100808354040283529160200191610878565b820191906000526020600020905b81548152906001019060200180831161085b57829003601f168201915b505050505093509450945094509450509193509193565b600080600084815260200190815260200160002060030160009054906101000a900460ff166108c15760019050610924565b60008084815260200190815260200160002060040160008373ffffffffffffffffffffffffffffffffffffffff1673ffffffffffffffffffffffffffffffffffffffff16815260200190815260200160002060009054906101000a900460ff1690505b92915050565b3373ffffffffffffffffffffffffffffffffffffffff1660008084815260200190815260200160002060010160009054906101000a900473ffffffffffffffffffffffffffffffffffffffff1673ffffffffffffffffffffffffffffffffffffffff16146109cd576040517f08c379a00000000000000000000000000000000000000000000000000000000081526004016109c4906114db565b60405180910390fd5b3373ffffffffffffffffffffffffffffffffffffffff168173ffffffffffffffffffffffffffffffffffffffff1603610a3b576040517f08c379a0000000000000000000000000000000000000000000000000000000008152600401610a32906115b3565b60405180910390fd5b60008083815260200190815260200160002060040160008273ffffffffffffffffffffffffffffffffffffffff1673ffffffffffffffffffffffffffffffffffffffff16815260200190815260200160002060009054906101000a900460ff16610ada576040517f08c379a0000000000000000000000000000000000000000000000000000000008152600401610ad19061161f565b60405180910390fd5b600080600084815260200190815260200160002060040160008373ffffffffffffffffffffffffffffffffffffffff1673ffffffffffffffffffffffffffffffffffffffff16815260200190815260200160002060006101000a81548160ff0219169083151502179055503373ffffffffffffffffffffffffffffffffffffffff168173ffffffffffffffffffffffffffffffffffffffff16837ffab19bdeacf1ea13315b1da3f79a3403fe4f16793b6a03eeff9e0bbbea24fe5f60405160405180910390a45050565b508054610bb0906111b0565b6000825580601f10610bc25750610be1565b601f016020900490600052602060002090810190610be09190610be4565b5b50565b5b80821115610bfd576000816000905550600101610be5565b5090565b6000604051905090565b600080fd5b600080fd5b600080fd5b600080fd5b6000601f19601f8301169050919050565b7f4e487b7100000000000000000000000000000000000000000000000000000000600052604160045260246000fd5b610c6882610c1f565b810181811067ffffffffffffffff82111715610c8757610c86610c30565b5b80604052505050565b6000610c9a610c01565b9050610ca68282610c5f565b919050565b600067ffffffffffffffff821115610cc657610cc5610c30565b5b610ccf82610c1f565b9050602081019050919050565b82818337600083830152505050565b6000610cfe610cf984610cab565b610c90565b905082815260208101848484011115610d1a57610d19610c1a565b5b610d25848285610cdc565b509392505050565b600082601f830112610d4257610d41610c15565b5b8135610d52848260208601610ceb565b91505092915050565b60008115159050919050565b610d7081610d5b565b8114610d7b57600080fd5b50565b600081359050610d8d81610d67565b92915050565b60008060408385031215610daa57610da9610c0b565b5b600083013567ffffffffffffffff811115610dc857610dc7610c10565b5b610dd485828601610d2d565b9250506020610de585828601610d7e565b9150509250929050565b6000819050919050565b610e0281610def565b82525050565b6000602082019050610e1d6000830184610df9565b92915050565b610e2c81610def565b8114610e3757600080fd5b50565b600081359050610e4981610e23565b92915050565b600060208284031215610e6557610e64610c0b565b5b6000610e7384828501610e3a565b91505092915050565b600081519050919050565b600082825260208201905092915050565b60005b83811015610eb6578082015181840152602081019050610e9b565b60008484015250505050565b6000610ecd82610e7c565b610ed78185610e87565b9350610ee7818560208601610e98565b610ef081610c1f565b840191505092915050565b600073ffffffffffffffffffffffffffffffffffffffff82169050919050565b6000610f2682610efb565b9050919050565b610f3681610f1b565b82525050565b6000819050919050565b610f4f81610f3c565b82525050565b610f5e81610d5b565b82525050565b60006080820190508181036000830152610f7e8187610ec2565b9050610f8d6020830186610f2d565b610f9a6040830185610f46565b610fa76060830184610f55565b95945050505050565b610fb981610f1b565b8114610fc457600080fd5b50565b600081359050610fd681610fb0565b92915050565b60008060408385031215610ff357610ff2610c0b565b5b600061100185828601610e3a565b925050602061101285828601610fc7565b9150509250929050565b60006020820190506110316000830184610f55565b92915050565b600081905092915050565b600061104d82610e7c565b6110578185611037565b9350611067818560208601610e98565b80840191505092915050565b60008160601b9050919050565b600061108b82611073565b9050919050565b600061109d82611080565b9050919050565b6110b56110b082610f1b565b611092565b82525050565b6000819050919050565b6110d66110d182610f3c565b6110bb565b82525050565b60006110e88286611042565b91506110f482856110a4565b60148201915061110482846110c5565b602082019150819050949350505050565b7f427562626c6520616c7265616479206578697374730000000000000000000000600082015250565b600061114b601583610e87565b915061115682611115565b602082019050919050565b6000602082019050818103600083015261117a8161113e565b9050919050565b7f4e487b7100000000000000000000000000000000000000000000000000000000600052602260045260246000fd5b600060028204905060018216806111c857607f821691505b6020821081036111db576111da611181565b5b50919050565b60008190508160005260206000209050919050565b60006020601f8301049050919050565b600082821b905092915050565b6000600883026112437fffffffffffffffffffffffffffffffffffffffffffffffffffffffffffffffff82611206565b61124d8683611206565b95508019841693508086168417925050509392505050565b6000819050919050565b600061128a61128561128084610f3c565b611265565b610f3c565b9050919050565b6000819050919050565b6112a48361126f565b6112b86112b082611291565b848454611213565b825550505050565b600090565b6112cd6112c0565b6112d881848461129b565b505050565b5b818110156112fc576112f16000826112c5565b6001810190506112de565b5050565b601f82111561134157611312816111e1565b61131b846111f6565b8101602085101561132a578190505b61133e611336856111f6565b8301826112dd565b50505b505050565b600082821c905092915050565b600061136460001984600802611346565b1980831691505092915050565b600061137d8383611353565b9150826002028217905092915050565b61139682610e7c565b67ffffffffffffffff8111156113af576113ae610c30565b5b6113b982546111b0565b6113c4828285611300565b600060209050601f8311600181146113f757600084156113e5578287015190505b6113ef8582611371565b865550611457565b601f198416611405866111e1565b60005b8281101561142d57848901518255600182019150602085019450602081019050611408565b8683101561144a5784890151611446601f891682611353565b8355505b6001600288020188555050505b505050505050565b600060408201905081810360008301526114798185610ec2565b90506114886020830184610f55565b9392505050565b7f4e6f7420627562626c65206f776e657200000000000000000000000000000000600082015250565b60006114c5601083610e87565b91506114d08261148f565b602082019050919050565b600060208201905081810360008301526114f4816114b8565b9050919050565b7f5573657220616c72656164792068617320616363657373000000000000000000600082015250565b6000611531601783610e87565b915061153c826114fb565b602082019050919050565b6000602082019050818103600083015261156081611524565b9050919050565b7f43616e6e6f74207265766f6b65206f776e657220616363657373000000000000600082015250565b600061159d601a83610e87565b91506115a882611567565b602082019050919050565b600060208201905081810360008301526115cc81611590565b9050919050565b7f5573657220686173206e6f206163636573730000000000000000000000000000600082015250565b6000611609601283610e87565b9150611614826115d3565b602082019050919050565b60006020820190508181036000830152611638816115fc565b905091905056fea2646970667358221220f6fb2b84d4aefac07b26fc9de7f8e7c24baa6b94773d30a584a2f4f9e208cfda64736f6c63430008130033",
  "linkReferences": {},
  "deployedLinkReferences": {}
}