{
  "_format": "hh-sol-artifact-1",
  "contractName": "BubbleProxy",
  "sourceName": "contracts/BubbleProxy.sol",
  "abi": [
    {
      "inputs": [
        {
          "internalType": "address",
          "name": "_registry",
          "type": "address"
        }
      ],
      "stateMutability": "nonpayable",
      "type": "constructor"
    },
    {
      "anonymous": false,
      "inputs": [
        {
          "indexed": true,
          "internalType": "address",
          "name": "proxy",
          "type": "address"
        },
        {
          "indexed": true,
          "internalType": "bytes32",
          "name": "bubbleId",
          "type": "bytes32"
        }
      ],
      "name": "ProxyPermissionGranted",
      "type": "event"
    },
    {
      "anonymous": false,
      "inputs": [
        {
          "indexed": true,
          "internalType": "address",
          "name": "proxy",
          "type": "address"
        },
        {
          "indexed": true,
          "internalType": "bytes32",
          "name": "bubbleId",
          "type": "bytes32"
        }
      ],
      "name": "ProxyPermissionRevoked",
      "type": "event"
    },
    {
      "anonymous": false,
      "inputs": [
        {
          "indexed": true,
          "internalType": "address",
          "name": "proxy",
          "type": "address"
        },
        {
          "indexed": true,
          "internalType": "address",
          "name": "owner",
          "type": "address"
        }
      ],
      "name": "ProxyRegistered",
      "type": "event"
    },
    {
      "inputs": [
        {
          "internalType": "address",
          "name": "proxy",
          "type": "address"
        },
        {
          "internalType": "bytes32",
          "name": "bubbleId",
          "type": "bytes32"
        }
      ],
      "name": "grantProxyPermission",
      "outputs": [],
      "stateMutability": "nonpayable",
      "type": "function"
    },
    {
      "inputs": [
        {
          "internalType": "bytes32",
          "name": "bubbleId",
          "type": "bytes32"
        }
      ],
      "name": "proxyAccess",
      "outputs": [
        {
          "internalType": "bool",
          "name": "",
          "type": "bool"
        }
      ],
      "stateMutability": "view",
      "type": "function"
    },
    {
      "inputs": [
        {
          "internalType": "address",
          "name": "proxy",
          "type": "address"
        },
        {
          "internalType": "bytes32",
          "name": "bubbleId",
          "type": "bytes32"
        }
      ],
      "name": "proxyHasAccess",
      "outputs": [
        {
          "internalType": "bool",
          "name": "",
          "type": "bool"
        }
      ],
      "stateMutability": "view",
      "type": "function"
    },
    {
      "inputs": [
        {
          "internalType": "address",
          "name": "",
          "type": "address"
        }
      ],
      "name": "proxyOwners",
      "outputs": [
        {
          "internalType": "address",
          "name": "",
          "type": "address"
        }
      ],
      "stateMutability": "view",
      "type": "function"
    },
    {
      "inputs": [
        {
          "internalType": "address",
          "name": "",
          "type": "address"
        },
        {
          "internalType": "bytes32",
          "name": "",
          "type": "bytes32"
        }
      ],
      "name": "proxyPermissions",
      "outputs": [
        {
          "internalType": "bool",
          "name": "",
          "type": "bool"
        }
      ],
      "stateMutability": "view",
      "type": "function"
    },
    {
      "inputs": [
        {
          "internalType": "address",
          "name": "proxy",
          "type": "address"
        }
      ],
      "name": "registerProxy",
      "outputs": [],
      "stateMutability": "nonpayable",
      "type": "function"
    },
    {
      "inputs": [],
      "name": "registry",
      "outputs": [
        {
          "internalType": "contract BubbleRegistry",
          "name": "",
          "type": "address"
        }
      ],
      "stateMutability": "view",
      "type": "function"
    },
    {
      "inputs": [
        {
          "internalType": "address",
          "name": "proxy",
          "type": "address"
        },
        {
          "internalType": "bytes32",
          "name": "bubbleId",
          "type": "bytes32"
        }
      ],
      "name": "revokeProxyPermission",
      "outputs": [],
      "stateMutability": "nonpayable",
      "type": "function"
    }
  ],
  "bytecode": "0x608060405234801561001057600080fd5b50604051610ec1380380610ec1833981810160405281019061003291906100db565b806000806101000a81548173ffffffffffffffffffffffffffffffffffffffff021916908373ffffffffffffffffffffffffffffffffffffffff16021790555050610108565b600080fd5b600073ffffffffffffffffffffffffffffffffffffffff82169050919050565b60006100a88261007d565b9050919050565b6100b88161009d565b81146100c357600080fd5b50565b6000815190506100d5816100af565b92915050565b6000602082840312156100f1576100f0610078565b5b60006100ff848285016100c6565b91505092915050565b610daa806101176000396000f3fe608060405234801561001057600080fd5b50600436106100885760003560e01c8063bb466c391161005b578063bb466c3914610113578063cc6212b014610143578063d053357414610173578063e101f087146101a357610088565b8063725aee381461008d5780637b103999146100bd578063810a2197146100db578063a46c0abe146100f7575b600080fd5b6100a760048036038101906100a29190610a1a565b6101bf565b6040516100b49190610a75565b60405180910390f35b6100c56101ee565b6040516100d29190610aef565b60405180910390f35b6100f560048036038101906100f09190610a1a565b610212565b005b610111600480360381019061010c9190610a1a565b610390565b005b61012d60048036038101906101289190610b0a565b6105e9565b60405161013a9190610a75565b60405180910390f35b61015d60048036038101906101589190610b37565b6105fc565b60405161016a9190610b73565b60405180910390f35b61018d60048036038101906101889190610a1a565b61062f565b60405161019a9190610a75565b60405180910390f35b6101bd60048036038101906101b89190610b37565b6107d8565b005b60026020528160005260406000206020528060005260406000206000915091509054906101000a900460ff1681565b60008054906101000a900473ffffffffffffffffffffffffffffffffffffffff1681565b3373ffffffffffffffffffffffffffffffffffffffff16600160008473ffffffffffffffffffffffffffffffffffffffff1673ffffffffffffffffffffffffffffffffffffffff16815260200190815260200160002060009054906101000a900473ffffffffffffffffffffffffffffffffffffffff1673ffffffffffffffffffffffffffffffffffffffff16146102df576040517f08c379a00000000000000000000000000000000000000000000000000000000081526004016102d690610beb565b60405180910390fd5b6000600260008473ffffffffffffffffffffffffffffffffffffffff1673ffffffffffffffffffffffffffffffffffffffff168152602001908152602001600020600083815260200190815260200160002060006101000a81548160ff021916908315150217905550808273ffffffffffffffffffffffffffffffffffffffff167f65a087ab7ec6e71359807382e21ec3ac819cdebf5125ad81a722f0770b59e89d60405160405180910390a35050565b3373ffffffffffffffffffffffffffffffffffffffff16600160008473ffffffffffffffffffffffffffffffffffffffff1673ffffffffffffffffffffffffffffffffffffffff16815260200190815260200160002060009054906101000a900473ffffffffffffffffffffffffffffffffffffffff1673ffffffffffffffffffffffffffffffffffffffff161461045d576040517f08c379a000000000000000000000000000000000000000000000000000000000815260040161045490610beb565b60405180910390fd5b60008054906101000a900473ffffffffffffffffffffffffffffffffffffffff1673ffffffffffffffffffffffffffffffffffffffff166383177db382336040518363ffffffff1660e01b81526004016104b8929190610c1a565b602060405180830381865afa1580156104d5573d6000803e3d6000fd5b505050506040513d601f19601f820116820180604052508101906104f99190610c6f565b610538576040517f08c379a000000000000000000000000000000000000000000000000000000000815260040161052f90610ce8565b60405180910390fd5b6001600260008473ffffffffffffffffffffffffffffffffffffffff1673ffffffffffffffffffffffffffffffffffffffff168152602001908152602001600020600083815260200190815260200160002060006101000a81548160ff021916908315150217905550808273ffffffffffffffffffffffffffffffffffffffff167fd32019f55b7fa379d2270577b30b3231afbd225ef1980a059979d2c6367eaf9060405160405180910390a35050565b60006105f5338361062f565b9050919050565b60016020528060005260406000206000915054906101000a900473ffffffffffffffffffffffffffffffffffffffff1681565b600080600160008573ffffffffffffffffffffffffffffffffffffffff1673ffffffffffffffffffffffffffffffffffffffff16815260200190815260200160002060009054906101000a900473ffffffffffffffffffffffffffffffffffffffff169050600073ffffffffffffffffffffffffffffffffffffffff168173ffffffffffffffffffffffffffffffffffffffff161415801561072b5750600260008573ffffffffffffffffffffffffffffffffffffffff1673ffffffffffffffffffffffffffffffffffffffff168152602001908152602001600020600084815260200190815260200160002060009054906101000a900460ff165b80156107cf575060008054906101000a900473ffffffffffffffffffffffffffffffffffffffff1673ffffffffffffffffffffffffffffffffffffffff166383177db384836040518363ffffffff1660e01b815260040161078d929190610c1a565b602060405180830381865afa1580156107aa573d6000803e3d6000fd5b505050506040513d601f19601f820116820180604052508101906107ce9190610c6f565b5b91505092915050565b600073ffffffffffffffffffffffffffffffffffffffff16600160008373ffffffffffffffffffffffffffffffffffffffff1673ffffffffffffffffffffffffffffffffffffffff16815260200190815260200160002060009054906101000a900473ffffffffffffffffffffffffffffffffffffffff1673ffffffffffffffffffffffffffffffffffffffff16146108a6576040517f08c379a000000000000000000000000000000000000000000000000000000000815260040161089d90610d54565b60405180910390fd5b33600160008373ffffffffffffffffffffffffffffffffffffffff1673ffffffffffffffffffffffffffffffffffffffff16815260200190815260200160002060006101000a81548173ffffffffffffffffffffffffffffffffffffffff021916908373ffffffffffffffffffffffffffffffffffffffff1602179055503373ffffffffffffffffffffffffffffffffffffffff168173ffffffffffffffffffffffffffffffffffffffff167f3623f8bd4da9524cfaa08c81b8194f759ca625e8d761f4cc2cea23e63d3f4b1260405160405180910390a350565b600080fd5b600073ffffffffffffffffffffffffffffffffffffffff82169050919050565b60006109b182610986565b9050919050565b6109c1816109a6565b81146109cc57600080fd5b50565b6000813590506109de816109b8565b92915050565b6000819050919050565b6109f7816109e4565b8114610a0257600080fd5b50565b600081359050610a14816109ee565b92915050565b60008060408385031215610a3157610a30610981565b5b6000610a3f858286016109cf565b9250506020610a5085828601610a05565b9150509250929050565b60008115159050919050565b610a6f81610a5a565b82525050565b6000602082019050610a8a6000830184610a66565b92915050565b6000819050919050565b6000610ab5610ab0610aab84610986565b610a90565b610986565b9050919050565b6000610ac782610a9a565b9050919050565b6000610ad982610abc565b9050919050565b610ae981610ace565b82525050565b6000602082019050610b046000830184610ae0565b92915050565b600060208284031215610b2057610b1f610981565b5b6000610b2e84828501610a05565b91505092915050565b600060208284031215610b4d57610b4c610981565b5b6000610b5b848285016109cf565b91505092915050565b610b6d816109a6565b82525050565b6000602082019050610b886000830184610b64565b92915050565b600082825260208201905092915050565b7f4e6f742070726f7879206f776e65720000000000000000000000000000000000600082015250565b6000610bd5600f83610b8e565b9150610be082610b9f565b602082019050919050565b60006020820190508181036000830152610c0481610bc8565b9050919050565b610c14816109e4565b82525050565b6000604082019050610c2f6000830185610c0b565b610c3c6020830184610b64565b9392505050565b610c4c81610a5a565b8114610c5757600080fd5b50565b600081519050610c6981610c43565b92915050565b600060208284031215610c8557610c84610981565b5b6000610c9384828501610c5a565b91505092915050565b7f4e6f2061636365737320746f20627562626c6500000000000000000000000000600082015250565b6000610cd2601383610b8e565b9150610cdd82610c9c565b602082019050919050565b60006020820190508181036000830152610d0181610cc5565b9050919050565b7f50726f787920616c726561647920726567697374657265640000000000000000600082015250565b6000610d3e601883610b8e565b9150610d4982610d08565b602082019050919050565b60006020820190508181036000830152610d6d81610d31565b905091905056fea2646970667358221220ea6cf5f26c5267ac2d7eb3f5f0eeb4f9f36e22e6187da65b97726008ff52129964736f6c63430008130033",
  "linkReferences": {},
  "deployedLinkReferences": {}
}