{
  "_format": "hh-sol-artifact-1",
  "contractName": "ProofOfIntegrity",
  "sourceName": "contracts/ProofOfIntegrity.sol",
  "abi": [
    {
      "anonymous": false,
      "inputs": [
        {
          "indexed": true,
          "internalType": "bytes32",
          "name": "nodeId",
          "type": "bytes32"
        },
        {
          "indexed": false,
          "internalType": "bytes32",
          "name": "contentHash",
          "type": "bytes32"
        },
        {
          "indexed": false,
          "internalType": "address",
          "name": "updater",
          "type": "address"
        }
      ],
      "name": "DataUpdated",
      "type": "event"
    },
    {
      "inputs": [
        {
          "internalType": "bytes32[]",
          "name": "nodeIds",
          "type": "bytes32[]"
        },
        {
          "internalType": "bytes32[]",
          "name": "contentHashes",
          "type": "bytes32[]"
        }
      ],
      "name": "batchUpdateData",
      "outputs": [],
      "stateMutability": "nonpayable",
      "type": "function"
    },
    {
      "inputs": [
        {
          "internalType": "bytes32",
          "name": "nodeId",
          "type": "bytes32"
        }
      ],
      "name": "getLatestRecord",
      "outputs": [
        {
          "internalType": "bytes32",
          "name": "",
          "type": "bytes32"
        },
        {
          "internalType": "uint256",
          "name": "",
          "type": "uint256"
        },
        {
          "internalType": "address",
          "name": "",
          "type": "address"
        }
      ],
      "stateMutability": "view",
      "type": "function"
    },
    {
      "inputs": [
        {
          "internalType": "bytes32",
          "name": "",
          "type": "bytes32"
        }
      ],
      "name": "nodeData",
      "outputs": [
        {
          "internalType": "bytes32",
          "name": "contentHash",
          "type": "bytes32"
        },
        {
          "internalType": "uint256",
          "name": "timestamp",
          "type": "uint256"
        },
        {
          "internalType": "address",
          "name": "updater",
          "type": "address"
        }
      ],
      "stateMutability": "view",
      "type": "function"
    },
    {
      "inputs": [
        {
          "internalType": "bytes32",
          "name": "nodeId",
          "type": "bytes32"
        },
        {
          "internalType": "bytes32",
          "name": "contentHash",
          "type": "bytes32"
        }
      ],
      "name": "updateData",
      "outputs": [],
      "stateMutability": "nonpayable",
      "type": "function"
    },
    {
      "inputs": [
        {
          "internalType": "bytes32",
          "name": "nodeId",
          "type": "bytes32"
        },
        {
          "internalType": "bytes32",
          "name": "contentHash",
          "type": "bytes32"
        }
      ],
      "name": "verifyData",
      "outputs": [
        {
          "internalType": "bool",
          "name": "",
          "type": "bool"
        },
        {
          "internalType": "uint256",
          "name": "",
          "type": "uint256"
        },
        {
          "internalType": "address",
          "name": "",
          "type": "address"
        }
      ],
      "stateMutability": "view",
      "type": "function"
    }
  ],
  "bytecode": "0x608060405234801561001057600080fd5b50610955806100206000396000f3fe608060405234801561001057600080fd5b50600436106100575760003560e01c80634b04c09d1461005c5780637ada1b551461008e578063ae870014146100aa578063e25fbc65146100dc578063f63553b5146100f8575b600080fd5b610076600480360381019061007191906104a3565b61012a565b60405161008593929190610539565b60405180910390f35b6100a860048036038101906100a39190610570565b6101d6565b005b6100c460048036038101906100bf9190610570565b6102b5565b6040516100d3939291906105cb565b60405180910390f35b6100f660048036038101906100f1919061075b565b610369565b005b610112600480360381019061010d91906104a3565b61040f565b60405161012193929190610539565b60405180910390f35b60008060008060008086815260200190815260200160002060405180606001604052908160008201548152602001600182015481526020016002820160009054906101000a900473ffffffffffffffffffffffffffffffffffffffff1673ffffffffffffffffffffffffffffffffffffffff1673ffffffffffffffffffffffffffffffffffffffff16815250509050806000015181602001518260400151935093509350509193909250565b60405180606001604052808281526020014281526020013373ffffffffffffffffffffffffffffffffffffffff16815250600080848152602001908152602001600020600082015181600001556020820151816001015560408201518160020160006101000a81548173ffffffffffffffffffffffffffffffffffffffff021916908373ffffffffffffffffffffffffffffffffffffffff160217905550905050817f8bfef2f2aebfe6bceb69ecae86388e8cfb858904d59c7b81295c680b664ab7e382336040516102a99291906107d3565b60405180910390a25050565b60008060008060008087815260200190815260200160002060405180606001604052908160008201548152602001600182015481526020016002820160009054906101000a900473ffffffffffffffffffffffffffffffffffffffff1673ffffffffffffffffffffffffffffffffffffffff1673ffffffffffffffffffffffffffffffffffffffff168152505090506000858260000151149050808260200151836040015194509450945050509250925092565b80518251146103ad576040517f08c379a00000000000000000000000000000000000000000000000000000000081526004016103a490610859565b60405180910390fd5b60005b825181101561040a576103f78382815181106103cf576103ce610879565b5b60200260200101518383815181106103ea576103e9610879565b5b60200260200101516101d6565b8080610402906108d7565b9150506103b0565b505050565b60006020528060005260406000206000915090508060000154908060010154908060020160009054906101000a900473ffffffffffffffffffffffffffffffffffffffff16905083565b6000604051905090565b600080fd5b600080fd5b6000819050919050565b6104808161046d565b811461048b57600080fd5b50565b60008135905061049d81610477565b92915050565b6000602082840312156104b9576104b8610463565b5b60006104c78482850161048e565b91505092915050565b6104d98161046d565b82525050565b6000819050919050565b6104f2816104df565b82525050565b600073ffffffffffffffffffffffffffffffffffffffff82169050919050565b6000610523826104f8565b9050919050565b61053381610518565b82525050565b600060608201905061054e60008301866104d0565b61055b60208301856104e9565b610568604083018461052a565b949350505050565b6000806040838503121561058757610586610463565b5b60006105958582860161048e565b92505060206105a68582860161048e565b9150509250929050565b60008115159050919050565b6105c5816105b0565b82525050565b60006060820190506105e060008301866105bc565b6105ed60208301856104e9565b6105fa604083018461052a565b949350505050565b600080fd5b6000601f19601f8301169050919050565b7f4e487b7100000000000000000000000000000000000000000000000000000000600052604160045260246000fd5b61065082610607565b810181811067ffffffffffffffff8211171561066f5761066e610618565b5b80604052505050565b6000610682610459565b905061068e8282610647565b919050565b600067ffffffffffffffff8211156106ae576106ad610618565b5b602082029050602081019050919050565b600080fd5b60006106d76106d284610693565b610678565b905080838252602082019050602084028301858111156106fa576106f96106bf565b5b835b81811015610723578061070f888261048e565b8452602084019350506020810190506106fc565b5050509392505050565b600082601f83011261074257610741610602565b5b81356107528482602086016106c4565b91505092915050565b6000806040838503121561077257610771610463565b5b600083013567ffffffffffffffff8111156107905761078f610468565b5b61079c8582860161072d565b925050602083013567ffffffffffffffff8111156107bd576107bc610468565b5b6107c98582860161072d565b9150509250929050565b60006040820190506107e860008301856104d0565b6107f5602083018461052a565b9392505050565b600082825260208201905092915050565b7f417272617973206c656e677468206d69736d6174636800000000000000000000600082015250565b60006108436016836107fc565b915061084e8261080d565b602082019050919050565b6000602082019050818103600083015261087281610836565b9050919050565b7f4e487b7100000000000000000000000000000000000000000000000000000000600052603260045260246000fd5b7f4e487b7100000000000000000000000000000000000000000000000000000000600052601160045260246000fd5b60006108e2826104df565b91507fffffffffffffffffffffffffffffffffffffffffffffffffffffffffffffffff8203610914576109136108a8565b5b60018201905091905056fea26469706673582212207abd5bc79df81590fa1641ec4d72bef41ed5973d4128562cefa14c754ce0e80164736f6c63430008130033",
  "linkReferences": {},
  "deployedLinkReferences": {}
}