{
  "_format": "hh-sol-artifact-1",
  "contractName": "StealthAnnouncer",
  "sourceName": "contracts/StealthAnnouncer.sol",
  "abi": [
    {
      "inputs": [
        {
          "internalType": "address",
          "name": "_devAddress",
          "type": "address"
        }
      ],
      "stateMutability": "nonpayable",
      "type": "constructor"
    },
    {
      "anonymous": false,
      "inputs": [
        {
          "indexed": false,
          "internalType": "address",
          "name": "newAddress",
          "type": "address"
        }
      ],
      "name": "DevAddressUpdated",
      "type": "event"
    },
    {
      "anonymous": false,
      "inputs": [
        {
          "indexed": false,
          "internalType": "uint256",
          "name": "newFee",
          "type": "uint256"
        }
      ],
      "name": "DevFeeUpdated",
      "type": "event"
    },
    {
      "anonymous": false,
      "inputs": [
        {
          "indexed": false,
          "internalType": "string",
          "name": "senderPublicKey",
          "type": "string"
        },
        {
          "indexed": false,
          "internalType": "string",
          "name": "spendingPublicKey",
          "type": "string"
        },
        {
          "indexed": false,
          "internalType": "address",
          "name": "stealthAddress",
          "type": "address"
        },
        {
          "indexed": false,
          "internalType": "uint256",
          "name": "timestamp",
          "type": "uint256"
        }
      ],
      "name": "StealthPaymentAnnounced",
      "type": "event"
    },
    {
      "inputs": [
        {
          "internalType": "string",
          "name": "senderPublicKey",
          "type": "string"
        },
        {
          "internalType": "string",
          "name": "spendingPublicKey",
          "type": "string"
        },
        {
          "internalType": "address",
          "name": "stealthAddress",
          "type": "address"
        }
      ],
      "name": "announcePayment",
      "outputs": [],
      "stateMutability": "payable",
      "type": "function"
    },
    {
      "inputs": [
        {
          "internalType": "uint256",
          "name": "",
          "type": "uint256"
        }
      ],
      "name": "announcements",
      "outputs": [
        {
          "internalType": "string",
          "name": "senderPublicKey",
          "type": "string"
        },
        {
          "internalType": "string",
          "name": "spendingPublicKey",
          "type": "string"
        },
        {
          "internalType": "address",
          "name": "stealthAddress",
          "type": "address"
        },
        {
          "internalType": "uint256",
          "name": "timestamp",
          "type": "uint256"
        }
      ],
      "stateMutability": "view",
      "type": "function"
    },
    {
      "inputs": [],
      "name": "devAddress",
      "outputs": [
        {
          "internalType": "address",
          "name": "",
          "type": "address"
        }
      ],
      "stateMutability": "view",
      "type": "function"
    },
    {
      "inputs": [],
      "name": "devFee",
      "outputs": [
        {
          "internalType": "uint256",
          "name": "",
          "type": "uint256"
        }
      ],
      "stateMutability": "view",
      "type": "function"
    },
    {
      "inputs": [],
      "name": "getAnnouncementsCount",
      "outputs": [
        {
          "internalType": "uint256",
          "name": "",
          "type": "uint256"
        }
      ],
      "stateMutability": "view",
      "type": "function"
    },
    {
      "inputs": [
        {
          "internalType": "uint256",
          "name": "fromIndex",
          "type": "uint256"
        },
        {
          "internalType": "uint256",
          "name": "toIndex",
          "type": "uint256"
        }
      ],
      "name": "getAnnouncementsInRange",
      "outputs": [
        {
          "components": [
            {
              "internalType": "string",
              "name": "senderPublicKey",
              "type": "string"
            },
            {
              "internalType": "string",
              "name": "spendingPublicKey",
              "type": "string"
            },
            {
              "internalType": "address",
              "name": "stealthAddress",
              "type": "address"
            },
            {
              "internalType": "uint256",
              "name": "timestamp",
              "type": "uint256"
            }
          ],
          "internalType": "struct StealthAnnouncer.StealthAnnouncement[]",
          "name": "",
          "type": "tuple[]"
        }
      ],
      "stateMutability": "view",
      "type": "function"
    },
    {
      "inputs": [
        {
          "internalType": "address",
          "name": "_newAddress",
          "type": "address"
        }
      ],
      "name": "updateDevAddress",
      "outputs": [],
      "stateMutability": "nonpayable",
      "type": "function"
    },
    {
      "inputs": [
        {
          "internalType": "uint256",
          "name": "_newFee",
          "type": "uint256"
        }
      ],
      "name": "updateDevFee",
      "outputs": [],
      "stateMutability": "nonpayable",
      "type": "function"
    },
    {
      "inputs": [],
      "name": "withdrawStuckETH",
      "outputs": [],
      "stateMutability": "nonpayable",
      "type": "function"
    }
  ],
  "bytecode": "0x6080604052655af3107a40006001553480156200001b57600080fd5b506040516200193b3803806200193b8339818101604052810190620000419190620000f2565b806000806101000a81548173ffffffffffffffffffffffffffffffffffffffff021916908373ffffffffffffffffffffffffffffffffffffffff1602179055505062000124565b600080fd5b600073ffffffffffffffffffffffffffffffffffffffff82169050919050565b6000620000ba826200008d565b9050919050565b620000cc81620000ad565b8114620000d857600080fd5b50565b600081519050620000ec81620000c1565b92915050565b6000602082840312156200010b576200010a62000088565b5b60006200011b84828501620000db565b91505092915050565b61180780620001346000396000f3fe6080604052600436106100865760003560e01c80638503376211610059578063850337621461014c57806399729ec114610175578063ca93e31e1461019e578063eb7be2ac146101db578063f5648a4f146101f757610086565b80631bcfbe311461008b5780633ad10ef6146100cb5780635fabd0cd146100f65780636827e76414610121575b600080fd5b34801561009757600080fd5b506100b260048036038101906100ad9190610bde565b61020e565b6040516100c29493929190610ceb565b60405180910390f35b3480156100d757600080fd5b506100e061037e565b6040516100ed9190610d3e565b60405180910390f35b34801561010257600080fd5b5061010b6103a2565b6040516101189190610d59565b60405180910390f35b34801561012d57600080fd5b506101366103af565b6040516101439190610d59565b60405180910390f35b34801561015857600080fd5b50610173600480360381019061016e9190610da0565b6103b5565b005b34801561018157600080fd5b5061019c60048036038101906101979190610bde565b6104bd565b005b3480156101aa57600080fd5b506101c560048036038101906101c09190610dcd565b61058c565b6040516101d29190610fa1565b60405180910390f35b6101f560048036038101906101f091906110f8565b610890565b005b34801561020357600080fd5b5061020c6109f8565b005b6002818154811061021e57600080fd5b9060005260206000209060040201600091509050806000018054610241906111b2565b80601f016020809104026020016040519081016040528092919081815260200182805461026d906111b2565b80156102ba5780601f1061028f576101008083540402835291602001916102ba565b820191906000526020600020905b81548152906001019060200180831161029d57829003601f168201915b5050505050908060010180546102cf906111b2565b80601f01602080910402602001604051908101604052809291908181526020018280546102fb906111b2565b80156103485780601f1061031d57610100808354040283529160200191610348565b820191906000526020600020905b81548152906001019060200180831161032b57829003601f168201915b5050505050908060020160009054906101000a900473ffffffffffffffffffffffffffffffffffffffff16908060030154905084565b60008054906101000a900473ffffffffffffffffffffffffffffffffffffffff1681565b6000600280549050905090565b60015481565b60008054906101000a900473ffffffffffffffffffffffffffffffffffffffff1673ffffffffffffffffffffffffffffffffffffffff163373ffffffffffffffffffffffffffffffffffffffff1614610443576040517f08c379a000000000000000000000000000000000000000000000000000000000815260040161043a9061122f565b60405180910390fd5b806000806101000a81548173ffffffffffffffffffffffffffffffffffffffff021916908373ffffffffffffffffffffffffffffffffffffffff1602179055507f34830ecd12aee38e030de8db2aab7662959ba614a8af53e095041d13deced11d816040516104b29190610d3e565b60405180910390a150565b60008054906101000a900473ffffffffffffffffffffffffffffffffffffffff1673ffffffffffffffffffffffffffffffffffffffff163373ffffffffffffffffffffffffffffffffffffffff161461054b576040517f08c379a00000000000000000000000000000000000000000000000000000000081526004016105429061122f565b60405180910390fd5b806001819055507fd2fcc8c801d1c6ec6267fa3420cc8428c11a8c06f0d110a700fe9ff1e7317360816040516105819190610d59565b60405180910390a150565b6060828210156105d1576040517f08c379a00000000000000000000000000000000000000000000000000000000081526004016105c89061129b565b60405180910390fd5b6002805490508210610618576040517f08c379a000000000000000000000000000000000000000000000000000000000815260040161060f90611307565b60405180910390fd5b6000600184846106289190611356565b610632919061138a565b905060008167ffffffffffffffff8111156106505761064f610fcd565b5b60405190808252806020026020018201604052801561068957816020015b610676610b56565b81526020019060019003908161066e5790505b50905060005b8281101561088457600281876106a5919061138a565b815481106106b6576106b56113be565b5b90600052602060002090600402016040518060800160405290816000820180546106df906111b2565b80601f016020809104026020016040519081016040528092919081815260200182805461070b906111b2565b80156107585780601f1061072d57610100808354040283529160200191610758565b820191906000526020600020905b81548152906001019060200180831161073b57829003601f168201915b50505050508152602001600182018054610771906111b2565b80601f016020809104026020016040519081016040528092919081815260200182805461079d906111b2565b80156107ea5780601f106107bf576101008083540402835291602001916107ea565b820191906000526020600020905b8154815290600101906020018083116107cd57829003601f168201915b505050505081526020016002820160009054906101000a900473ffffffffffffffffffffffffffffffffffffffff1673ffffffffffffffffffffffffffffffffffffffff1673ffffffffffffffffffffffffffffffffffffffff168152602001600382015481525050828281518110610866576108656113be565b5b6020026020010181905250808061087c906113ed565b91505061068f565b50809250505092915050565b6001543410156108d5576040517f08c379a00000000000000000000000000000000000000000000000000000000081526004016108cc90611481565b60405180910390fd5b600260405180608001604052808581526020018481526020018373ffffffffffffffffffffffffffffffffffffffff168152602001428152509080600181540180825580915050600190039060005260206000209060040201600090919091909150600082015181600001908161094c919061164d565b506020820151816001019081610962919061164d565b5060408201518160020160006101000a81548173ffffffffffffffffffffffffffffffffffffffff021916908373ffffffffffffffffffffffffffffffffffffffff1602179055506060820151816003015550507fd473583944dff235264dba87ace9054a2b6804a696bdda5b9152f30943946911838383426040516109eb9493929190610ceb565b60405180910390a1505050565b60008054906101000a900473ffffffffffffffffffffffffffffffffffffffff1673ffffffffffffffffffffffffffffffffffffffff163373ffffffffffffffffffffffffffffffffffffffff1614610a86576040517f08c379a0000000000000000000000000000000000000000000000000000000008152600401610a7d9061122f565b60405180910390fd5b60008060009054906101000a900473ffffffffffffffffffffffffffffffffffffffff1673ffffffffffffffffffffffffffffffffffffffff1647604051610acd90611750565b60006040518083038185875af1925050503d8060008114610b0a576040519150601f19603f3d011682016040523d82523d6000602084013e610b0f565b606091505b5050905080610b53576040517f08c379a0000000000000000000000000000000000000000000000000000000008152600401610b4a906117b1565b60405180910390fd5b50565b60405180608001604052806060815260200160608152602001600073ffffffffffffffffffffffffffffffffffffffff168152602001600081525090565b6000604051905090565b600080fd5b600080fd5b6000819050919050565b610bbb81610ba8565b8114610bc657600080fd5b50565b600081359050610bd881610bb2565b92915050565b600060208284031215610bf457610bf3610b9e565b5b6000610c0284828501610bc9565b91505092915050565b600081519050919050565b600082825260208201905092915050565b60005b83811015610c45578082015181840152602081019050610c2a565b60008484015250505050565b6000601f19601f8301169050919050565b6000610c6d82610c0b565b610c778185610c16565b9350610c87818560208601610c27565b610c9081610c51565b840191505092915050565b600073ffffffffffffffffffffffffffffffffffffffff82169050919050565b6000610cc682610c9b565b9050919050565b610cd681610cbb565b82525050565b610ce581610ba8565b82525050565b60006080820190508181036000830152610d058187610c62565b90508181036020830152610d198186610c62565b9050610d286040830185610ccd565b610d356060830184610cdc565b95945050505050565b6000602082019050610d536000830184610ccd565b92915050565b6000602082019050610d6e6000830184610cdc565b92915050565b610d7d81610cbb565b8114610d8857600080fd5b50565b600081359050610d9a81610d74565b92915050565b600060208284031215610db657610db5610b9e565b5b6000610dc484828501610d8b565b91505092915050565b60008060408385031215610de457610de3610b9e565b5b6000610df285828601610bc9565b9250506020610e0385828601610bc9565b9150509250929050565b600081519050919050565b600082825260208201905092915050565b6000819050602082019050919050565b600082825260208201905092915050565b6000610e5582610c0b565b610e5f8185610e39565b9350610e6f818560208601610c27565b610e7881610c51565b840191505092915050565b610e8c81610cbb565b82525050565b610e9b81610ba8565b82525050565b60006080830160008301518482036000860152610ebe8282610e4a565b91505060208301518482036020860152610ed88282610e4a565b9150506040830151610eed6040860182610e83565b506060830151610f006060860182610e92565b508091505092915050565b6000610f178383610ea1565b905092915050565b6000602082019050919050565b6000610f3782610e0d565b610f418185610e18565b935083602082028501610f5385610e29565b8060005b85811015610f8f5784840389528151610f708582610f0b565b9450610f7b83610f1f565b925060208a01995050600181019050610f57565b50829750879550505050505092915050565b60006020820190508181036000830152610fbb8184610f2c565b905092915050565b600080fd5b600080fd5b7f4e487b7100000000000000000000000000000000000000000000000000000000600052604160045260246000fd5b61100582610c51565b810181811067ffffffffffffffff8211171561102457611023610fcd565b5b80604052505050565b6000611037610b94565b90506110438282610ffc565b919050565b600067ffffffffffffffff82111561106357611062610fcd565b5b61106c82610c51565b9050602081019050919050565b82818337600083830152505050565b600061109b61109684611048565b61102d565b9050828152602081018484840111156110b7576110b6610fc8565b5b6110c2848285611079565b509392505050565b600082601f8301126110df576110de610fc3565b5b81356110ef848260208601611088565b91505092915050565b60008060006060848603121561111157611110610b9e565b5b600084013567ffffffffffffffff81111561112f5761112e610ba3565b5b61113b868287016110ca565b935050602084013567ffffffffffffffff81111561115c5761115b610ba3565b5b611168868287016110ca565b925050604061117986828701610d8b565b9150509250925092565b7f4e487b7100000000000000000000000000000000000000000000000000000000600052602260045260246000fd5b600060028204905060018216806111ca57607f821691505b6020821081036111dd576111dc611183565b5b50919050565b7f4f6e6c79206465762063616e2063616c6c20746869732066756e6374696f6e00600082015250565b6000611219601f83610c16565b9150611224826111e3565b602082019050919050565b600060208201905081810360008301526112488161120c565b9050919050565b7f496e76616c69642072616e676500000000000000000000000000000000000000600082015250565b6000611285600d83610c16565b91506112908261124f565b602082019050919050565b600060208201905081810360008301526112b481611278565b9050919050565b7f496e646578206f7574206f6620626f756e647300000000000000000000000000600082015250565b60006112f1601383610c16565b91506112fc826112bb565b602082019050919050565b60006020820190508181036000830152611320816112e4565b9050919050565b7f4e487b7100000000000000000000000000000000000000000000000000000000600052601160045260246000fd5b600061136182610ba8565b915061136c83610ba8565b925082820390508181111561138457611383611327565b5b92915050565b600061139582610ba8565b91506113a083610ba8565b92508282019050808211156113b8576113b7611327565b5b92915050565b7f4e487b7100000000000000000000000000000000000000000000000000000000600052603260045260246000fd5b60006113f882610ba8565b91507fffffffffffffffffffffffffffffffffffffffffffffffffffffffffffffffff820361142a57611429611327565b5b600182019050919050565b7f496e73756666696369656e742066656500000000000000000000000000000000600082015250565b600061146b601083610c16565b915061147682611435565b602082019050919050565b6000602082019050818103600083015261149a8161145e565b9050919050565b60008190508160005260206000209050919050565b60006020601f8301049050919050565b600082821b905092915050565b6000600883026115037fffffffffffffffffffffffffffffffffffffffffffffffffffffffffffffffff826114c6565b61150d86836114c6565b95508019841693508086168417925050509392505050565b6000819050919050565b600061154a61154561154084610ba8565b611525565b610ba8565b9050919050565b6000819050919050565b6115648361152f565b61157861157082611551565b8484546114d3565b825550505050565b600090565b61158d611580565b61159881848461155b565b505050565b5b818110156115bc576115b1600082611585565b60018101905061159e565b5050565b601f821115611601576115d2816114a1565b6115db846114b6565b810160208510156115ea578190505b6115fe6115f6856114b6565b83018261159d565b50505b505050565b600082821c905092915050565b600061162460001984600802611606565b1980831691505092915050565b600061163d8383611613565b9150826002028217905092915050565b61165682610c0b565b67ffffffffffffffff81111561166f5761166e610fcd565b5b61167982546111b2565b6116848282856115c0565b600060209050601f8311600181146116b757600084156116a5578287015190505b6116af8582611631565b865550611717565b601f1984166116c5866114a1565b60005b828110156116ed578489015182556001820191506020850194506020810190506116c8565b8683101561170a5784890151611706601f891682611613565b8355505b6001600288020188555050505b505050505050565b600081905092915050565b50565b600061173a60008361171f565b91506117458261172a565b600082019050919050565b600061175b8261172d565b9150819050919050565b7f4661696c656420746f2077697468647261770000000000000000000000000000600082015250565b600061179b601283610c16565b91506117a682611765565b602082019050919050565b600060208201905081810360008301526117ca8161178e565b905091905056fea2646970667358221220d2ac91ada713bb6a70cd16b50fa50f47e03e8ac9fe659c0214dc63306a10b2c964736f6c63430008130033",
  "linkReferences": {},
  "deployedLinkReferences": {}
}