{
  "_format": "hh-sol-artifact-1",
  "contractName": "Test",
  "sourceName": "contracts/tests/utils/Test.sol",
  "abi": [
    {
      "inputs": [],
      "name": "vm",
      "outputs": [
        {
          "internalType": "contract Vm",
          "name": "",
          "type": "address"
        }
      ],
      "stateMutability": "view",
      "type": "function"
    }
  ],
  "bytecode": "0x6080604052348015600f57600080fd5b5060998061001e6000396000f3fe6080604052348015600f57600080fd5b506004361060285760003560e01c80633a76846314602d575b600080fd5b6047737109709ecfa91a80626ff3989d68f67f5b1dd12d81565b6040516001600160a01b03909116815260200160405180910390f3fea2646970667358221220fb247b757b03c99638167924067ed907323be7e8eb9a084036458eb58e199ab164736f6c63430008130033",
  "linkReferences": {},
  "deployedLinkReferences": {}
}