{
  "_format": "hh-sol-artifact-1",
  "contractName": "StealthAnnouncerTest",
  "sourceName": "contracts/tests/StealthAnnouncer.test.sol",
  "abi": [
    {
      "inputs": [],
      "name": "setUp",
      "outputs": [],
      "stateMutability": "nonpayable",
      "type": "function"
    },
    {
      "inputs": [],
      "name": "testAnnouncePayment",
      "outputs": [],
      "stateMutability": "nonpayable",
      "type": "function"
    },
    {
      "inputs": [],
      "name": "testUpdateDevAddress",
      "outputs": [],
      "stateMutability": "nonpayable",
      "type": "function"
    },
    {
      "inputs": [],
      "name": "testUpdateDevFee",
      "outputs": [],
      "stateMutability": "nonpayable",
      "type": "function"
    },
    {
      "inputs": [],
      "name": "testWithdrawStuckETH",
      "outputs": [],
      "stateMutability": "nonpayable",
      "type": "function"
    },
    {
      "inputs": [],
      "name": "vm",
      "outputs": [
        {
          "internalType": "contract Vm",
          "name": "",
          "type": "address"
        }
      ],
      "stateMutability": "view",
      "type": "function"
    }
  ],
  "bytecode": "0x608060405234801561001057600080fd5b50611e57806100206000396000f3fe608060405234801561001057600080fd5b50600436106100625760003560e01c8063013b75501461006757806306494718146100715780630a9254e4146100795780633a7684631461008157806353c41771146100b8578063a0f513d9146100c0575b600080fd5b61006f6100c8565b005b61006f61027e565b61006f6103d3565b61009c737109709ecfa91a80626ff3989d68f67f5b1dd12d81565b6040516001600160a01b03909116815260200160405180910390f35b61006f61044d565b61006f610823565b6001546040516303223eab60e11b81526001600160a01b039091166004820152737109709ecfa91a80626ff3989d68f67f5b1dd12d906306447d5690602401600060405180830381600087803b15801561012157600080fd5b505af1158015610135573d6000803e3d6000fd5b50506000546040516342819bb160e11b8152600480820181905293506001600160a01b039091169150638503376290602401600060405180830381600087803b15801561018157600080fd5b505af1158015610195573d6000803e3d6000fd5b5050505061021760008054906101000a90046001600160a01b03166001600160a01b0316633ad10ef66040518163ffffffff1660e01b8152600401602060405180830381865afa1580156101ed573d6000803e3d6000fd5b505050506040513d601f19601f820116820180604052508101906102119190610cbf565b82610b60565b604080516390c5013b60e01b81529051737109709ecfa91a80626ff3989d68f67f5b1dd12d916390c5013b91600480830192600092919082900301818387803b15801561026357600080fd5b505af1158015610277573d6000803e3d6000fd5b5050505050565b6001546040516303223eab60e11b81526001600160a01b039091166004820152737109709ecfa91a80626ff3989d68f67f5b1dd12d906306447d5690602401600060405180830381600087803b1580156102d757600080fd5b505af11580156102eb573d6000803e3d6000fd5b50506000546040516399729ec160e01b815265b5e620f480006004820181905293506001600160a01b0390911691506399729ec190602401600060405180830381600087803b15801561033d57600080fd5b505af1158015610351573d6000803e3d6000fd5b5050505061021760008054906101000a90046001600160a01b03166001600160a01b0316636827e7646040518163ffffffff1660e01b8152600401602060405180830381865afa1580156103a9573d6000803e3d6000fd5b505050506040513d601f19601f820116820180604052508101906103cd9190610ce1565b82610bc0565b600180546001600160a01b03199081168217825560028054909116811790556040516103fe90610c96565b6001600160a01b039091168152602001604051809103906000f08015801561042a573d6000803e3d6000fd5b50600080546001600160a01b0319166001600160a01b0392909216919091179055565b6002546040516303223eab60e11b81526001600160a01b039091166004820152737109709ecfa91a80626ff3989d68f67f5b1dd12d906306447d5690602401600060405180830381600087803b1580156104a657600080fd5b505af11580156104ba573d6000803e3d6000fd5b505060025460405163c88a5e6d60e01b81526001600160a01b039091166004820152670de0b6b3a76400006024820152737109709ecfa91a80626ff3989d68f67f5b1dd12d925063c88a5e6d9150604401600060405180830381600087803b15801561052557600080fd5b505af1158015610539573d6000803e3d6000fd5b5050604080518082018252600981526873656e6465724b657960b81b60208083019190915282518084018452600b81526a7370656e64696e674b657960a81b818301526000548451631a09f9d960e21b815294519396509094506003936001600160a01b039091169263eb7be2ac928492636827e76492600480830193928290030181865afa1580156105d0573d6000803e3d6000fd5b505050506040513d601f19601f820116820180604052508101906105f49190610ce1565b8585856040518563ffffffff1660e01b815260040161061593929190610d4a565b6000604051808303818588803b15801561062e57600080fd5b505af1158015610642573d6000803e3d6000fd5b50505050506106c660008054906101000a90046001600160a01b03166001600160a01b0316635fabd0cd6040518163ffffffff1660e01b8152600401602060405180830381865afa15801561069b573d6000803e3d6000fd5b505050506040513d601f19601f820116820180604052508101906106bf9190610ce1565b6001610bc0565b60008054604051636549f18f60e11b815260048101839052602481018390526001600160a01b039091169063ca93e31e90604401600060405180830381865afa158015610717573d6000803e3d6000fd5b505050506040513d6000823e601f3d908101601f1916820160405261073f9190810190610e64565b90506107698160008151811061075757610757610f9f565b60200260200101516000015185610c02565b6107918160008151811061077f5761077f610f9f565b60200260200101516020015184610c02565b6107b9816000815181106107a7576107a7610f9f565b60200260200101516040015183610b60565b604080516390c5013b60e01b81529051737109709ecfa91a80626ff3989d68f67f5b1dd12d916390c5013b91600480830192600092919082900301818387803b15801561080557600080fd5b505af1158015610819573d6000803e3d6000fd5b5050505050505050565b6002546040516303223eab60e11b81526001600160a01b039091166004820152737109709ecfa91a80626ff3989d68f67f5b1dd12d906306447d5690602401600060405180830381600087803b15801561087c57600080fd5b505af1158015610890573d6000803e3d6000fd5b505060025460405163c88a5e6d60e01b81526001600160a01b039091166004820152670de0b6b3a76400006024820152737109709ecfa91a80626ff3989d68f67f5b1dd12d925063c88a5e6d9150604401600060405180830381600087803b1580156108fb57600080fd5b505af115801561090f573d6000803e3d6000fd5b505060005460408051631a09f9d960e21b815290516001600160a01b03909216935063eb7be2ac92508391636827e764916004808201926020929091908290030181865afa158015610965573d6000803e3d6000fd5b505050506040513d601f19601f820116820180604052508101906109899190610ce1565b6040516001600160e01b031960e084901b168152606060048083019190915260648201819052636b65793160e01b608483015260a0602483015260a48201526335b2bc9960e11b60c48201526003604482015260e4016000604051808303818588803b1580156109f857600080fd5b505af1158015610a0c573d6000803e3d6000fd5b5050604080516390c5013b60e01b81529051737109709ecfa91a80626ff3989d68f67f5b1dd12d94506390c5013b93506004808301935060009282900301818387803b158015610a5b57600080fd5b505af1158015610a6f573d6000803e3d6000fd5b50506001546040516303223eab60e11b81526001600160a01b039091166004820152737109709ecfa91a80626ff3989d68f67f5b1dd12d92506306447d569150602401600060405180830381600087803b158015610acc57600080fd5b505af1158015610ae0573d6000803e3d6000fd5b5050600154600080546040805163f5648a4f60e01b815290516001600160a01b0394851631965093909116935063f5648a4f926004808301939282900301818387803b158015610b2f57600080fd5b505af1158015610b43573d6000803e3d6000fd5b505060015461021792506001600160a01b03163183109050610c53565b806001600160a01b0316826001600160a01b031614610bbc5760405162461bcd60e51b81526020600482015260136024820152721059191c995cdcd95cc81b9bdd08195c5d585b606a1b60448201526064015b60405180910390fd5b5050565b808214610bbc5760405162461bcd60e51b815260206004820152601060248201526f15985b1d595cc81b9bdd08195c5d585b60821b6044820152606401610bb3565b8080519060200120828051906020012014610bbc5760405162461bcd60e51b815260206004820152601160248201527014dd1c9a5b99dcc81b9bdd08195c5d585b607a1b6044820152606401610bb3565b80610c935760405162461bcd60e51b815260206004820152601060248201526f105cdcd95c9d1a5bdb8819985a5b195960821b6044820152606401610bb3565b50565b610e6c80610fb683390190565b80516001600160a01b0381168114610cba57600080fd5b919050565b600060208284031215610cd157600080fd5b610cda82610ca3565b9392505050565b600060208284031215610cf357600080fd5b5051919050565b60005b83811015610d15578181015183820152602001610cfd565b50506000910152565b60008151808452610d36816020860160208601610cfa565b601f01601f19169290920160200192915050565b606081526000610d5d6060830186610d1e565b8281036020840152610d6f8186610d1e565b91505060018060a01b0383166040830152949350505050565b634e487b7160e01b600052604160045260246000fd5b6040516080810167ffffffffffffffff81118282101715610dc157610dc1610d88565b60405290565b604051601f8201601f1916810167ffffffffffffffff81118282101715610df057610df0610d88565b604052919050565b600082601f830112610e0957600080fd5b815167ffffffffffffffff811115610e2357610e23610d88565b610e36601f8201601f1916602001610dc7565b818152846020838601011115610e4b57600080fd5b610e5c826020830160208701610cfa565b949350505050565b60006020808385031215610e7757600080fd5b825167ffffffffffffffff80821115610e8f57600080fd5b818501915085601f830112610ea357600080fd5b815181811115610eb557610eb5610d88565b8060051b610ec4858201610dc7565b9182528381018501918581019089841115610ede57600080fd5b86860192505b83831015610f9257825185811115610efc5760008081fd5b86016080818c03601f1901811315610f145760008081fd5b610f1c610d9e565b8983015188811115610f2e5760008081fd5b610f3c8e8c83870101610df8565b82525060408084015189811115610f535760008081fd5b610f618f8d83880101610df8565b8c840152506060610f73818601610ca3565b9183019190915291909201519082015282529186019190860190610ee4565b9998505050505050505050565b634e487b7160e01b600052603260045260246000fdfe6080604052655af3107a400060015534801561001a57600080fd5b50604051610e6c380380610e6c8339810160408190526100399161005e565b600080546001600160a01b0319166001600160a01b039290921691909117905561008e565b60006020828403121561007057600080fd5b81516001600160a01b038116811461008757600080fd5b9392505050565b610dcf8061009d6000396000f3fe6080604052600436106100865760003560e01c80638503376211610059578063850337621461013157806399729ec114610153578063ca93e31e14610173578063eb7be2ac146101a0578063f5648a4f146101b357600080fd5b80631bcfbe311461008b5780633ad10ef6146100c45780635fabd0cd146100fc5780636827e7641461011b575b600080fd5b34801561009757600080fd5b506100ab6100a63660046108f2565b6101c8565b6040516100bb9493929190610951565b60405180910390f35b3480156100d057600080fd5b506000546100e4906001600160a01b031681565b6040516001600160a01b0390911681526020016100bb565b34801561010857600080fd5b506002545b6040519081526020016100bb565b34801561012757600080fd5b5061010d60015481565b34801561013d57600080fd5b5061015161014c3660046109af565b610322565b005b34801561015f57600080fd5b5061015161016e3660046108f2565b6103aa565b34801561017f57600080fd5b5061019361018e3660046109d1565b610409565b6040516100bb91906109f3565b6101516101ae366004610b3a565b6106ed565b3480156101bf57600080fd5b5061015161082d565b600281815481106101d857600080fd5b90600052602060002090600402016000915090508060000180546101fb90610bae565b80601f016020809104026020016040519081016040528092919081815260200182805461022790610bae565b80156102745780601f1061024957610100808354040283529160200191610274565b820191906000526020600020905b81548152906001019060200180831161025757829003601f168201915b50505050509080600101805461028990610bae565b80601f01602080910402602001604051908101604052809291908181526020018280546102b590610bae565b80156103025780601f106102d757610100808354040283529160200191610302565b820191906000526020600020905b8154815290600101906020018083116102e557829003601f168201915b50505050600283015460039093015491926001600160a01b031691905084565b6000546001600160a01b031633146103555760405162461bcd60e51b815260040161034c90610be8565b60405180910390fd5b600080546001600160a01b0319166001600160a01b0383169081179091556040519081527f34830ecd12aee38e030de8db2aab7662959ba614a8af53e095041d13deced11d906020015b60405180910390a150565b6000546001600160a01b031633146103d45760405162461bcd60e51b815260040161034c90610be8565b60018190556040518181527fd2fcc8c801d1c6ec6267fa3420cc8428c11a8c06f0d110a700fe9ff1e73173609060200161039f565b60608282101561044b5760405162461bcd60e51b815260206004820152600d60248201526c496e76616c69642072616e676560981b604482015260640161034c565b60025482106104925760405162461bcd60e51b8152602060048201526013602482015272496e646578206f7574206f6620626f756e647360681b604482015260640161034c565b600061049e8484610c35565b6104a9906001610c48565b905060008167ffffffffffffffff8111156104c6576104c6610a97565b60405190808252806020026020018201604052801561052b57816020015b6105186040518060800160405280606081526020016060815260200160006001600160a01b03168152602001600081525090565b8152602001906001900390816104e45790505b50905060005b828110156106e25760026105458288610c48565b8154811061055557610555610c5b565b906000526020600020906004020160405180608001604052908160008201805461057e90610bae565b80601f01602080910402602001604051908101604052809291908181526020018280546105aa90610bae565b80156105f75780601f106105cc576101008083540402835291602001916105f7565b820191906000526020600020905b8154815290600101906020018083116105da57829003601f168201915b5050505050815260200160018201805461061090610bae565b80601f016020809104026020016040519081016040528092919081815260200182805461063c90610bae565b80156106895780601f1061065e57610100808354040283529160200191610689565b820191906000526020600020905b81548152906001019060200180831161066c57829003601f168201915b505050918352505060028201546001600160a01b0316602082015260039091015460409091015282518390839081106106c4576106c4610c5b565b602002602001018190525080806106da90610c71565b915050610531565b509150505b92915050565b6001543410156107325760405162461bcd60e51b815260206004820152601060248201526f496e73756666696369656e742066656560801b604482015260640161034c565b60408051608081018252848152602081018490526001600160a01b0383169181019190915242606082015260028054600181018255600091909152815160049091027f405787fa12a823e0f2b7631cc41b3ba8828b3321ca811111fa75cd3aa3bb5ace019081906107a39082610cd9565b50602082015160018201906107b89082610cd9565b506040828101516002830180546001600160a01b0319166001600160a01b03909216919091179055606090920151600390910155517fd473583944dff235264dba87ace9054a2b6804a696bdda5b9152f3094394691190610820908590859085904290610951565b60405180910390a1505050565b6000546001600160a01b031633146108575760405162461bcd60e51b815260040161034c90610be8565b600080546040516001600160a01b039091169047908381818185875af1925050503d80600081146108a4576040519150601f19603f3d011682016040523d82523d6000602084013e6108a9565b606091505b50509050806108ef5760405162461bcd60e51b81526020600482015260126024820152714661696c656420746f20776974686472617760701b604482015260640161034c565b50565b60006020828403121561090457600080fd5b5035919050565b6000815180845260005b8181101561093157602081850181015186830182015201610915565b506000602082860101526020601f19601f83011685010191505092915050565b608081526000610964608083018761090b565b8281036020840152610976818761090b565b6001600160a01b0395909516604084015250506060015292915050565b80356001600160a01b03811681146109aa57600080fd5b919050565b6000602082840312156109c157600080fd5b6109ca82610993565b9392505050565b600080604083850312156109e457600080fd5b50508035926020909101359150565b60006020808301818452808551808352604092508286019150828160051b87010184880160005b83811015610a8957603f19898403018552815160808151818652610a408287018261090b565b915050888201518582038a870152610a58828261090b565b838a01516001600160a01b0316878b0152606093840151939096019290925250509386019390860190600101610a1a565b509098975050505050505050565b634e487b7160e01b600052604160045260246000fd5b600082601f830112610abe57600080fd5b813567ffffffffffffffff80821115610ad957610ad9610a97565b604051601f8301601f19908116603f01168101908282118183101715610b0157610b01610a97565b81604052838152866020858801011115610b1a57600080fd5b836020870160208301376000602085830101528094505050505092915050565b600080600060608486031215610b4f57600080fd5b833567ffffffffffffffff80821115610b6757600080fd5b610b7387838801610aad565b94506020860135915080821115610b8957600080fd5b50610b9686828701610aad565b925050610ba560408501610993565b90509250925092565b600181811c90821680610bc257607f821691505b602082108103610be257634e487b7160e01b600052602260045260246000fd5b50919050565b6020808252601f908201527f4f6e6c79206465762063616e2063616c6c20746869732066756e6374696f6e00604082015260600190565b634e487b7160e01b600052601160045260246000fd5b818103818111156106e7576106e7610c1f565b808201808211156106e7576106e7610c1f565b634e487b7160e01b600052603260045260246000fd5b600060018201610c8357610c83610c1f565b5060010190565b601f821115610cd457600081815260208120601f850160051c81016020861015610cb15750805b601f850160051c820191505b81811015610cd057828155600101610cbd565b5050505b505050565b815167ffffffffffffffff811115610cf357610cf3610a97565b610d0781610d018454610bae565b84610c8a565b602080601f831160018114610d3c5760008415610d245750858301515b600019600386901b1c1916600185901b178555610cd0565b600085815260208120601f198616915b82811015610d6b57888601518255948401946001909101908401610d4c565b5085821015610d895787850151600019600388901b60f8161c191681555b5050505050600190811b0190555056fea2646970667358221220eaba8c80b777d3aadef4ec5ba8546709a8444f142d66fa8fc5f3afbca579640664736f6c63430008130033a2646970667358221220441d9100bf897bc1a4df04c76a715dc852a0da88788c604ca622dd9cfbd5a7bf64736f6c63430008130033",
  "linkReferences": {},
  "deployedLinkReferences": {}
}