{
  "_format": "hh-sol-artifact-1",
  "contractName": "BubbleRegistryTest",
  "sourceName": "contracts/tests/BubbleRegistry.test.sol",
  "abi": [
    {
      "inputs": [],
      "name": "setUp",
      "outputs": [],
      "stateMutability": "nonpayable",
      "type": "function"
    },
    {
      "inputs": [],
      "name": "testCreateBubble",
      "outputs": [],
      "stateMutability": "nonpayable",
      "type": "function"
    },
    {
      "inputs": [],
      "name": "testDeleteBubble",
      "outputs": [],
      "stateMutability": "nonpayable",
      "type": "function"
    },
    {
      "inputs": [],
      "name": "testGrantAccess",
      "outputs": [],
      "stateMutability": "nonpayable",
      "type": "function"
    },
    {
      "inputs": [],
      "name": "testPublicBubbleAccess",
      "outputs": [],
      "stateMutability": "nonpayable",
      "type": "function"
    },
    {
      "inputs": [],
      "name": "testRevokeAccess",
      "outputs": [],
      "stateMutability": "nonpayable",
      "type": "function"
    },
    {
      "inputs": [],
      "name": "vm",
      "outputs": [
        {
          "internalType": "contract Vm",
          "name": "",
          "type": "address"
        }
      ],
      "stateMutability": "view",
      "type": "function"
    }
  ],
  "bytecode": "0x608060405234801561001057600080fd5b50611a83806100206000396000f3fe608060405234801561001057600080fd5b506004361061007d5760003560e01c8063aa9059d51161005b578063aa9059d5146100cb578063c42731bf146100d3578063e75566f4146100db578063eb364ed6146100e357600080fd5b80630a9254e4146100825780630d8e288b1461008c5780633a76846314610094575b600080fd5b61008a6100eb565b005b61008a61014a565b6100af737109709ecfa91a80626ff3989d68f67f5b1dd12d81565b6040516001600160a01b03909116815260200160405180910390f35b61008a6103fa565b61008a6105c1565b61008a6107b7565b61008a610987565b6040516100f790610cf1565b604051809103906000f080158015610113573d6000803e3d6000fd5b50600080546001600160a01b03929092166001600160a01b0319928316179055600180548216811790556002805490911681179055565b6001546040516303223eab60e11b81526001600160a01b039091166004820152737109709ecfa91a80626ff3989d68f67f5b1dd12d906306447d5690602401600060405180830381600087803b1580156101a357600080fd5b505af11580156101b7573d6000803e3d6000fd5b505060008054604051630155eb1b60e11b81529193506001600160a01b031691506302abd636906101ed90600190600401610cfe565b6020604051808303816000875af115801561020c573d6000803e3d6000fd5b505050506040513d601f19601f820116820180604052508101906102309190610d2b565b60008054604051630e85226b60e31b81526004810184905292935090918291829182916001600160a01b031690637429135890602401600060405180830381865afa158015610283573d6000803e3d6000fd5b505050506040513d6000823e601f3d908101601f191682016040526102ab9190810190610d86565b93509350935093506102e0846040518060400160405280600b81526020016a5465737420427562626c6560a81b815250610bbf565b6001546102f79084906001600160a01b0316610c19565b61030360008311610c70565b61030c81610c70565b6000546001546040516383177db360e01b8152600481018890526001600160a01b03918216602482015261038f9291909116906383177db3906044015b602060405180830381865afa158015610366573d6000803e3d6000fd5b505050506040513d601f19601f8201168201806040525081019061038a9190610e7b565b610c70565b604080516390c5013b60e01b81529051737109709ecfa91a80626ff3989d68f67f5b1dd12d916390c5013b91600480830192600092919082900301818387803b1580156103db57600080fd5b505af11580156103ef573d6000803e3d6000fd5b505050505050505050565b6001546040516303223eab60e11b81526001600160a01b039091166004820152737109709ecfa91a80626ff3989d68f67f5b1dd12d906306447d5690602401600060405180830381600087803b15801561045357600080fd5b505af1158015610467573d6000803e3d6000fd5b50506000805460408051630155eb1b60e11b81526004810191909152600d60448201526c5075626c696320427562626c6560981b6064820152602481018390529193506001600160a01b031691506302abd636906084016020604051808303816000875af11580156104dd573d6000803e3d6000fd5b505050506040513d601f19601f820116820180604052508101906105019190610d2b565b90507f885cb69240a935d632d79c317109709ecfa91a80626ff3989d68f67f5b1dd12d60001c60601b60601c6001600160a01b03166390c5013b6040518163ffffffff1660e01b8152600401600060405180830381600087803b15801561056757600080fd5b505af115801561057b573d6000803e3d6000fd5b50506000546002546040516383177db360e01b8152600481018690526001600160a01b0391821660248201526105be9450911691506383177db390604401610349565b50565b6001546040516303223eab60e11b81526001600160a01b039091166004820152737109709ecfa91a80626ff3989d68f67f5b1dd12d906306447d5690602401600060405180830381600087803b15801561061a57600080fd5b505af115801561062e573d6000803e3d6000fd5b505060008054604051630155eb1b60e11b81529193506001600160a01b031691506302abd6369061066490600190600401610cfe565b6020604051808303816000875af1158015610683573d6000803e3d6000fd5b505050506040513d601f19601f820116820180604052508101906106a79190610d2b565b60005460025460405163202aa61d60e11b8152600481018490526001600160a01b03918216602482015292935016906340554c3a90604401600060405180830381600087803b1580156106f957600080fd5b505af115801561070d573d6000803e3d6000fd5b50506000546002546040516383177db360e01b8152600481018690526001600160a01b0391821660248201526107509450911691506383177db390604401610349565b604080516390c5013b60e01b81529051737109709ecfa91a80626ff3989d68f67f5b1dd12d916390c5013b91600480830192600092919082900301818387803b15801561079c57600080fd5b505af11580156107b0573d6000803e3d6000fd5b5050505050565b6001546040516303223eab60e11b81526001600160a01b039091166004820152737109709ecfa91a80626ff3989d68f67f5b1dd12d906306447d5690602401600060405180830381600087803b15801561081057600080fd5b505af1158015610824573d6000803e3d6000fd5b505060008054604051630155eb1b60e11b81529193506001600160a01b031691506302abd6369061085a90600190600401610cfe565b6020604051808303816000875af1158015610879573d6000803e3d6000fd5b505050506040513d601f19601f8201168201806040525081019061089d9190610d2b565b6000546040516306e3eeb760e21b8152600481018390529192506001600160a01b031690631b8fbadc90602401600060405180830381600087803b1580156108e457600080fd5b505af11580156108f8573d6000803e3d6000fd5b505060008054604051630e85226b60e31b815260048101869052919350839250829182916001600160a01b031690637429135890602401600060405180830381865afa15801561094c573d6000803e3d6000fd5b505050506040513d6000823e601f3d908101601f191682016040526109749190810190610d86565b935093509350935061038f836000610c19565b6001546040516303223eab60e11b81526001600160a01b039091166004820152737109709ecfa91a80626ff3989d68f67f5b1dd12d906306447d5690602401600060405180830381600087803b1580156109e057600080fd5b505af11580156109f4573d6000803e3d6000fd5b505060008054604051630155eb1b60e11b81529193506001600160a01b031691506302abd63690610a2a90600190600401610cfe565b6020604051808303816000875af1158015610a49573d6000803e3d6000fd5b505050506040513d601f19601f82011682018060405250810190610a6d9190610d2b565b60005460025460405163202aa61d60e11b8152600481018490526001600160a01b03918216602482015292935016906340554c3a90604401600060405180830381600087803b158015610abf57600080fd5b505af1158015610ad3573d6000803e3d6000fd5b50506000546002546040516311aa764160e31b8152600481018690526001600160a01b03918216602482015291169250638d53b2089150604401600060405180830381600087803b158015610b2757600080fd5b505af1158015610b3b573d6000803e3d6000fd5b50506000546002546040516383177db360e01b8152600481018690526001600160a01b0391821660248201526107509450911691506383177db390604401602060405180830381865afa158015610b96573d6000803e3d6000fd5b505050506040513d601f19601f82011682018060405250810190610bba9190610e7b565b610cb0565b8080519060200120828051906020012014610c155760405162461bcd60e51b815260206004820152601160248201527014dd1c9a5b99dcc81b9bdd08195c5d585b607a1b60448201526064015b60405180910390fd5b5050565b806001600160a01b0316826001600160a01b031614610c155760405162461bcd60e51b81526020600482015260136024820152721059191c995cdcd95cc81b9bdd08195c5d585b606a1b6044820152606401610c0c565b806105be5760405162461bcd60e51b815260206004820152601060248201526f105cdcd95c9d1a5bdb8819985a5b195960821b6044820152606401610c0c565b80156105be5760405162461bcd60e51b815260206004820152601060248201526f105cdcd95c9d1a5bdb8819985a5b195960821b6044820152606401610c0c565b610bb080610e9e83390190565b6040808252600b908201526a5465737420427562626c6560a81b6060820152901515602082015260800190565b600060208284031215610d3d57600080fd5b5051919050565b634e487b7160e01b600052604160045260246000fd5b80516001600160a01b0381168114610d7157600080fd5b919050565b80518015158114610d7157600080fd5b60008060008060808587031215610d9c57600080fd5b845167ffffffffffffffff80821115610db457600080fd5b818701915087601f830112610dc857600080fd5b815181811115610dda57610dda610d44565b604051601f8201601f19908116603f01168101908382118183101715610e0257610e02610d44565b81604052828152602093508a84848701011115610e1e57600080fd5b600091505b82821015610e405784820184015181830185015290830190610e23565b6000848483010152809850505050610e59818801610d5a565b9450505060408501519150610e7060608601610d76565b905092959194509250565b600060208284031215610e8d57600080fd5b610e9682610d76565b939250505056fe608060405234801561001057600080fd5b50610b90806100206000396000f3fe608060405234801561001057600080fd5b506004361061007d5760003560e01c806340554c3a1161005b57806340554c3a146100e057806374291358146100f357806383177db3146101065780638d53b2081461012957600080fd5b806302abd636146100825780631b8fbadc146100a85780631e77a815146100bd575b600080fd5b6100956100903660046107e3565b61013c565b6040519081526020015b60405180910390f35b6100bb6100b63660046108a5565b610274565b005b6100d06100cb3660046108a5565b61031a565b60405161009f949392919061090e565b6100bb6100ee366004610948565b6103d9565b6100d06101013660046108a5565b6104e5565b610119610114366004610948565b6105be565b604051901515815260200161009f565b6100bb610137366004610948565b61060d565b60008083334260405160200161015493929190610984565b60408051601f198184030181529181528151602092830120600081815292839052912060020154909150156101c85760405162461bcd60e51b8152602060048201526015602482015274427562626c6520616c72656164792065786973747360581b60448201526064015b60405180910390fd5b6000818152602081905260409020806101e18682610a4c565b50600180820180546001600160a01b0319163390811790915542600284015560038301805487151560ff199182161790915560008281526004850160205260409081902080549092169093179055905183907ff044551e1b1324af60e5b3736ce9012589d4e1e3061d0f620d20543ce0b06d00906102629089908990610b0c565b60405180910390a35090505b92915050565b6000818152602081905260409020600101546001600160a01b031633146102ad5760405162461bcd60e51b81526004016101bf90610b30565b6000818152602081905260408120906102c68282610762565b506001810180546001600160a01b03191690556000600282018190556003909101805460ff1916905560405182917fa83cbc31505645fe7917ca8af3507febeaac4e845b274dcc9d4b85d0a0cd45fa91a250565b600060208190529081526040902080548190610335906109c3565b80601f0160208091040260200160405190810160405280929190818152602001828054610361906109c3565b80156103ae5780601f10610383576101008083540402835291602001916103ae565b820191906000526020600020905b81548152906001019060200180831161039157829003601f168201915b505050506001830154600284015460039094015492936001600160a01b039091169290915060ff1684565b6000828152602081905260409020600101546001600160a01b031633146104125760405162461bcd60e51b81526004016101bf90610b30565b6000828152602081815260408083206001600160a01b038516845260040190915290205460ff16156104865760405162461bcd60e51b815260206004820152601760248201527f5573657220616c7265616479206861732061636365737300000000000000000060448201526064016101bf565b6000828152602081815260408083206001600160a01b0385168085526004909101909252808320805460ff1916600117905551339285917f7aeffe35f64b55a7c424c5fccc3fba0f3ac4ebd764cc737855b8734834458f2b9190a45050565b600081815260208190526040812060018101546002820154600383015483546060959485948594919384936001600160a01b03909216929160ff90911690849061052e906109c3565b80601f016020809104026020016040519081016040528092919081815260200182805461055a906109c3565b80156105a75780601f1061057c576101008083540402835291602001916105a7565b820191906000526020600020905b81548152906001019060200180831161058a57829003601f168201915b505050505093509450945094509450509193509193565b60008281526020819052604081206003015460ff166105df5750600161026e565b506000828152602081815260408083206001600160a01b038516845260040190915290205460ff1692915050565b6000828152602081905260409020600101546001600160a01b031633146106465760405162461bcd60e51b81526004016101bf90610b30565b336001600160a01b0382160361069e5760405162461bcd60e51b815260206004820152601a60248201527f43616e6e6f74207265766f6b65206f776e65722061636365737300000000000060448201526064016101bf565b6000828152602081815260408083206001600160a01b038516845260040190915290205460ff166107065760405162461bcd60e51b81526020600482015260126024820152715573657220686173206e6f2061636365737360701b60448201526064016101bf565b6000828152602081815260408083206001600160a01b0385168085526004909101909252808320805460ff1916905551339285917ffab19bdeacf1ea13315b1da3f79a3403fe4f16793b6a03eeff9e0bbbea24fe5f9190a45050565b50805461076e906109c3565b6000825580601f1061077e575050565b601f01602090049060005260206000209081019061079c919061079f565b50565b5b808211156107b457600081556001016107a0565b5090565b634e487b7160e01b600052604160045260246000fd5b803580151581146107de57600080fd5b919050565b600080604083850312156107f657600080fd5b823567ffffffffffffffff8082111561080e57600080fd5b818501915085601f83011261082257600080fd5b813581811115610834576108346107b8565b604051601f8201601f19908116603f0116810190838211818310171561085c5761085c6107b8565b8160405282815288602084870101111561087557600080fd5b82602086016020830137600060208483010152809650505050505061089c602084016107ce565b90509250929050565b6000602082840312156108b757600080fd5b5035919050565b60005b838110156108d95781810151838201526020016108c1565b50506000910152565b600081518084526108fa8160208601602086016108be565b601f01601f19169290920160200192915050565b60808152600061092160808301876108e2565b6001600160a01b039590951660208301525060408101929092521515606090910152919050565b6000806040838503121561095b57600080fd5b8235915060208301356001600160a01b038116811461097957600080fd5b809150509250929050565b600084516109968184602089016108be565b60609490941b6bffffffffffffffffffffffff191691909301908152601481019190915260340192915050565b600181811c908216806109d757607f821691505b6020821081036109f757634e487b7160e01b600052602260045260246000fd5b50919050565b601f821115610a4757600081815260208120601f850160051c81016020861015610a245750805b601f850160051c820191505b81811015610a4357828155600101610a30565b5050505b505050565b815167ffffffffffffffff811115610a6657610a666107b8565b610a7a81610a7484546109c3565b846109fd565b602080601f831160018114610aaf5760008415610a975750858301515b600019600386901b1c1916600185901b178555610a43565b600085815260208120601f198616915b82811015610ade57888601518255948401946001909101908401610abf565b5085821015610afc5787850151600019600388901b60f8161c191681555b5050505050600190811b01905550565b604081526000610b1f60408301856108e2565b905082151560208301529392505050565b60208082526010908201526f2737ba10313ab13136329037bbb732b960811b60408201526060019056fea2646970667358221220f9a873287a60effd7137ca1e0056e6b461b1013534f0cd40351a0e6cb500070564736f6c63430008130033a2646970667358221220459464b53aae6a771fd677a5a04a19ea6a4f78ff4c3c4c36c258e57769ea642a64736f6c63430008130033",
  "linkReferences": {},
  "deployedLinkReferences": {}
}