{
  "_format": "hh-sol-artifact-1",
  "contractName": "StealthAnnouncer",
  "sourceName": "contracts/StealthAnnouncer.sol",
  "abi": [
    {
      "inputs": [
        {
          "internalType": "address",
          "name": "_devAddress",
          "type": "address"
        }
      ],
      "stateMutability": "nonpayable",
      "type": "constructor"
    },
    {
      "anonymous": false,
      "inputs": [
        {
          "indexed": false,
          "internalType": "address",
          "name": "newAddress",
          "type": "address"
        }
      ],
      "name": "DevAddressUpdated",
      "type": "event"
    },
    {
      "anonymous": false,
      "inputs": [
        {
          "indexed": false,
          "internalType": "uint256",
          "name": "newFee",
          "type": "uint256"
        }
      ],
      "name": "DevFeeUpdated",
      "type": "event"
    },
    {
      "anonymous": false,
      "inputs": [
        {
          "indexed": false,
          "internalType": "string",
          "name": "senderPublicKey",
          "type": "string"
        },
        {
          "indexed": false,
          "internalType": "string",
          "name": "spendingPublicKey",
          "type": "string"
        },
        {
          "indexed": false,
          "internalType": "address",
          "name": "stealthAddress",
          "type": "address"
        },
        {
          "indexed": false,
          "internalType": "uint256",
          "name": "timestamp",
          "type": "uint256"
        }
      ],
      "name": "StealthPaymentAnnounced",
      "type": "event"
    },
    {
      "inputs": [
        {
          "internalType": "string",
          "name": "senderPublicKey",
          "type": "string"
        },
        {
          "internalType": "string",
          "name": "spendingPublicKey",
          "type": "string"
        },
        {
          "internalType": "address",
          "name": "stealthAddress",
          "type": "address"
        }
      ],
      "name": "announcePayment",
      "outputs": [],
      "stateMutability": "payable",
      "type": "function"
    },
    {
      "inputs": [
        {
          "internalType": "uint256",
          "name": "",
          "type": "uint256"
        }
      ],
      "name": "announcements",
      "outputs": [
        {
          "internalType": "string",
          "name": "senderPublicKey",
          "type": "string"
        },
        {
          "internalType": "string",
          "name": "spendingPublicKey",
          "type": "string"
        },
        {
          "internalType": "address",
          "name": "stealthAddress",
          "type": "address"
        },
        {
          "internalType": "uint256",
          "name": "timestamp",
          "type": "uint256"
        }
      ],
      "stateMutability": "view",
      "type": "function"
    },
    {
      "inputs": [],
      "name": "devAddress",
      "outputs": [
        {
          "internalType": "address",
          "name": "",
          "type": "address"
        }
      ],
      "stateMutability": "view",
      "type": "function"
    },
    {
      "inputs": [],
      "name": "devFee",
      "outputs": [
        {
          "internalType": "uint256",
          "name": "",
          "type": "uint256"
        }
      ],
      "stateMutability": "view",
      "type": "function"
    },
    {
      "inputs": [],
      "name": "getAnnouncementsCount",
      "outputs": [
        {
          "internalType": "uint256",
          "name": "",
          "type": "uint256"
        }
      ],
      "stateMutability": "view",
      "type": "function"
    },
    {
      "inputs": [
        {
          "internalType": "uint256",
          "name": "fromIndex",
          "type": "uint256"
        },
        {
          "internalType": "uint256",
          "name": "toIndex",
          "type": "uint256"
        }
      ],
      "name": "getAnnouncementsInRange",
      "outputs": [
        {
          "components": [
            {
              "internalType": "string",
              "name": "senderPublicKey",
              "type": "string"
            },
            {
              "internalType": "string",
              "name": "spendingPublicKey",
              "type": "string"
            },
            {
              "internalType": "address",
              "name": "stealthAddress",
              "type": "address"
            },
            {
              "internalType": "uint256",
              "name": "timestamp",
              "type": "uint256"
            }
          ],
          "internalType": "struct StealthAnnouncer.StealthAnnouncement[]",
          "name": "",
          "type": "tuple[]"
        }
      ],
      "stateMutability": "view",
      "type": "function"
    },
    {
      "inputs": [
        {
          "internalType": "address",
          "name": "_newAddress",
          "type": "address"
        }
      ],
      "name": "updateDevAddress",
      "outputs": [],
      "stateMutability": "nonpayable",
      "type": "function"
    },
    {
      "inputs": [
        {
          "internalType": "uint256",
          "name": "_newFee",
          "type": "uint256"
        }
      ],
      "name": "updateDevFee",
      "outputs": [],
      "stateMutability": "nonpayable",
      "type": "function"
    },
    {
      "inputs": [],
      "name": "withdrawStuckETH",
      "outputs": [],
      "stateMutability": "nonpayable",
      "type": "function"
    }
  ],
  "bytecode": "0x6080604052655af3107a400060015534801561001a57600080fd5b50604051610e6c380380610e6c8339810160408190526100399161005e565b600080546001600160a01b0319166001600160a01b039290921691909117905561008e565b60006020828403121561007057600080fd5b81516001600160a01b038116811461008757600080fd5b9392505050565b610dcf8061009d6000396000f3fe6080604052600436106100865760003560e01c80638503376211610059578063850337621461013157806399729ec114610153578063ca93e31e14610173578063eb7be2ac146101a0578063f5648a4f146101b357600080fd5b80631bcfbe311461008b5780633ad10ef6146100c45780635fabd0cd146100fc5780636827e7641461011b575b600080fd5b34801561009757600080fd5b506100ab6100a63660046108f2565b6101c8565b6040516100bb9493929190610951565b60405180910390f35b3480156100d057600080fd5b506000546100e4906001600160a01b031681565b6040516001600160a01b0390911681526020016100bb565b34801561010857600080fd5b506002545b6040519081526020016100bb565b34801561012757600080fd5b5061010d60015481565b34801561013d57600080fd5b5061015161014c3660046109af565b610322565b005b34801561015f57600080fd5b5061015161016e3660046108f2565b6103aa565b34801561017f57600080fd5b5061019361018e3660046109d1565b610409565b6040516100bb91906109f3565b6101516101ae366004610b3a565b6106ed565b3480156101bf57600080fd5b5061015161082d565b600281815481106101d857600080fd5b90600052602060002090600402016000915090508060000180546101fb90610bae565b80601f016020809104026020016040519081016040528092919081815260200182805461022790610bae565b80156102745780601f1061024957610100808354040283529160200191610274565b820191906000526020600020905b81548152906001019060200180831161025757829003601f168201915b50505050509080600101805461028990610bae565b80601f01602080910402602001604051908101604052809291908181526020018280546102b590610bae565b80156103025780601f106102d757610100808354040283529160200191610302565b820191906000526020600020905b8154815290600101906020018083116102e557829003601f168201915b50505050600283015460039093015491926001600160a01b031691905084565b6000546001600160a01b031633146103555760405162461bcd60e51b815260040161034c90610be8565b60405180910390fd5b600080546001600160a01b0319166001600160a01b0383169081179091556040519081527f34830ecd12aee38e030de8db2aab7662959ba614a8af53e095041d13deced11d906020015b60405180910390a150565b6000546001600160a01b031633146103d45760405162461bcd60e51b815260040161034c90610be8565b60018190556040518181527fd2fcc8c801d1c6ec6267fa3420cc8428c11a8c06f0d110a700fe9ff1e73173609060200161039f565b60608282101561044b5760405162461bcd60e51b815260206004820152600d60248201526c496e76616c69642072616e676560981b604482015260640161034c565b60025482106104925760405162461bcd60e51b8152602060048201526013602482015272496e646578206f7574206f6620626f756e647360681b604482015260640161034c565b600061049e8484610c35565b6104a9906001610c48565b905060008167ffffffffffffffff8111156104c6576104c6610a97565b60405190808252806020026020018201604052801561052b57816020015b6105186040518060800160405280606081526020016060815260200160006001600160a01b03168152602001600081525090565b8152602001906001900390816104e45790505b50905060005b828110156106e25760026105458288610c48565b8154811061055557610555610c5b565b906000526020600020906004020160405180608001604052908160008201805461057e90610bae565b80601f01602080910402602001604051908101604052809291908181526020018280546105aa90610bae565b80156105f75780601f106105cc576101008083540402835291602001916105f7565b820191906000526020600020905b8154815290600101906020018083116105da57829003601f168201915b5050505050815260200160018201805461061090610bae565b80601f016020809104026020016040519081016040528092919081815260200182805461063c90610bae565b80156106895780601f1061065e57610100808354040283529160200191610689565b820191906000526020600020905b81548152906001019060200180831161066c57829003601f168201915b505050918352505060028201546001600160a01b0316602082015260039091015460409091015282518390839081106106c4576106c4610c5b565b602002602001018190525080806106da90610c71565b915050610531565b509150505b92915050565b6001543410156107325760405162461bcd60e51b815260206004820152601060248201526f496e73756666696369656e742066656560801b604482015260640161034c565b60408051608081018252848152602081018490526001600160a01b0383169181019190915242606082015260028054600181018255600091909152815160049091027f405787fa12a823e0f2b7631cc41b3ba8828b3321ca811111fa75cd3aa3bb5ace019081906107a39082610cd9565b50602082015160018201906107b89082610cd9565b506040828101516002830180546001600160a01b0319166001600160a01b03909216919091179055606090920151600390910155517fd473583944dff235264dba87ace9054a2b6804a696bdda5b9152f3094394691190610820908590859085904290610951565b60405180910390a1505050565b6000546001600160a01b031633146108575760405162461bcd60e51b815260040161034c90610be8565b600080546040516001600160a01b039091169047908381818185875af1925050503d80600081146108a4576040519150601f19603f3d011682016040523d82523d6000602084013e6108a9565b606091505b50509050806108ef5760405162461bcd60e51b81526020600482015260126024820152714661696c656420746f20776974686472617760701b604482015260640161034c565b50565b60006020828403121561090457600080fd5b5035919050565b6000815180845260005b8181101561093157602081850181015186830182015201610915565b506000602082860101526020601f19601f83011685010191505092915050565b608081526000610964608083018761090b565b8281036020840152610976818761090b565b6001600160a01b0395909516604084015250506060015292915050565b80356001600160a01b03811681146109aa57600080fd5b919050565b6000602082840312156109c157600080fd5b6109ca82610993565b9392505050565b600080604083850312156109e457600080fd5b50508035926020909101359150565b60006020808301818452808551808352604092508286019150828160051b87010184880160005b83811015610a8957603f19898403018552815160808151818652610a408287018261090b565b915050888201518582038a870152610a58828261090b565b838a01516001600160a01b0316878b0152606093840151939096019290925250509386019390860190600101610a1a565b509098975050505050505050565b634e487b7160e01b600052604160045260246000fd5b600082601f830112610abe57600080fd5b813567ffffffffffffffff80821115610ad957610ad9610a97565b604051601f8301601f19908116603f01168101908282118183101715610b0157610b01610a97565b81604052838152866020858801011115610b1a57600080fd5b836020870160208301376000602085830101528094505050505092915050565b600080600060608486031215610b4f57600080fd5b833567ffffffffffffffff80821115610b6757600080fd5b610b7387838801610aad565b94506020860135915080821115610b8957600080fd5b50610b9686828701610aad565b925050610ba560408501610993565b90509250925092565b600181811c90821680610bc257607f821691505b602082108103610be257634e487b7160e01b600052602260045260246000fd5b50919050565b6020808252601f908201527f4f6e6c79206465762063616e2063616c6c20746869732066756e6374696f6e00604082015260600190565b634e487b7160e01b600052601160045260246000fd5b818103818111156106e7576106e7610c1f565b808201808211156106e7576106e7610c1f565b634e487b7160e01b600052603260045260246000fd5b600060018201610c8357610c83610c1f565b5060010190565b601f821115610cd457600081815260208120601f850160051c81016020861015610cb15750805b601f850160051c820191505b81811015610cd057828155600101610cbd565b5050505b505050565b815167ffffffffffffffff811115610cf357610cf3610a97565b610d0781610d018454610bae565b84610c8a565b602080601f831160018114610d3c5760008415610d245750858301515b600019600386901b1c1916600185901b178555610cd0565b600085815260208120601f198616915b82811015610d6b57888601518255948401946001909101908401610d4c565b5085821015610d895787850151600019600388901b60f8161c191681555b5050505050600190811b0190555056fea2646970667358221220eaba8c80b777d3aadef4ec5ba8546709a8444f142d66fa8fc5f3afbca579640664736f6c63430008130033",
  "linkReferences": {},
  "deployedLinkReferences": {}
}